{
  "_format": "hh-sol-artifact-1",
  "contractName": "AlastriaIdentityManager",
  "sourceName": "contracts/identityManager/AlastriaIdentityManager.sol",
  "abi": [
    {
      "anonymous": false,
      "inputs": [
        {
          "indexed": true,
          "internalType": "address",
          "name": "identity",
          "type": "address"
        },
        {
          "indexed": true,
          "internalType": "address",
          "name": "creator",
          "type": "address"
        },
        {
          "indexed": false,
          "internalType": "address",
          "name": "owner",
          "type": "address"
        }
      ],
      "name": "IdentityCreated",
      "type": "event"
    },
    {
      "anonymous": false,
      "inputs": [
        {
          "indexed": true,
          "internalType": "address",
          "name": "oldAccount",
          "type": "address"
        },
        {
          "indexed": false,
          "internalType": "address",
          "name": "newAccount",
          "type": "address"
        },
        {
          "indexed": true,
          "internalType": "address",
          "name": "serviceProvider",
          "type": "address"
        }
      ],
      "name": "IdentityRecovered",
      "type": "event"
    },
    {
      "anonymous": false,
      "inputs": [
        {
          "indexed": true,
          "internalType": "string",
          "name": "method",
          "type": "string"
        }
      ],
      "name": "OperationWasNotSupported",
      "type": "event"
    },
    {
      "anonymous": false,
      "inputs": [
        {
          "indexed": true,
          "internalType": "address",
          "name": "signAddress",
          "type": "address"
        }
      ],
      "name": "PreparedAlastriaID",
      "type": "event"
    },
    {
      "inputs": [
        {
          "internalType": "bytes",
          "name": "addPublicKeyCallData",
          "type": "bytes"
        }
      ],
      "name": "createAlastriaIdentity",
      "outputs": [],
      "stateMutability": "nonpayable",
      "type": "function"
    },
    {
      "inputs": [
        {
          "internalType": "address",
          "name": "_destination",
          "type": "address"
        },
        {
          "internalType": "uint256",
          "name": "_value",
          "type": "uint256"
        },
        {
          "internalType": "bytes",
          "name": "_data",
          "type": "bytes"
        }
      ],
      "name": "delegateCall",
      "outputs": [
        {
          "internalType": "bytes",
          "name": "",
          "type": "bytes"
        }
      ],
      "stateMutability": "nonpayable",
      "type": "function"
    },
    {
      "inputs": [
        {
          "internalType": "address",
          "name": "",
          "type": "address"
        }
      ],
      "name": "identityKeys",
      "outputs": [
        {
          "internalType": "address",
          "name": "",
          "type": "address"
        }
      ],
      "stateMutability": "view",
      "type": "function"
    },
    {
      "inputs": [
        {
          "internalType": "address",
          "name": "_aidEntity",
          "type": "address"
        },
        {
          "internalType": "address",
          "name": "_aidIssuer",
          "type": "address"
        },
        {
          "internalType": "address",
          "name": "_aidServiceProvider",
          "type": "address"
        },
        {
          "internalType": "address",
          "name": "_credentialRegistry",
          "type": "address"
        },
        {
          "internalType": "address",
          "name": "_presentationRegistry",
          "type": "address"
        },
        {
          "internalType": "address",
          "name": "_publicKeyRegistry",
          "type": "address"
        }
      ],
      "name": "initialize",
      "outputs": [],
      "stateMutability": "nonpayable",
      "type": "function"
    },
    {
      "inputs": [
        {
          "internalType": "address",
          "name": "",
          "type": "address"
        }
      ],
      "name": "pendingIDs",
      "outputs": [
        {
          "internalType": "uint256",
          "name": "",
          "type": "uint256"
        }
      ],
      "stateMutability": "view",
      "type": "function"
    },
    {
      "inputs": [
        {
          "internalType": "address",
          "name": "_signAddress",
          "type": "address"
        }
      ],
      "name": "prepareAlastriaID",
      "outputs": [],
      "stateMutability": "nonpayable",
      "type": "function"
    },
    {
      "inputs": [
        {
          "internalType": "address",
          "name": "accountLost",
          "type": "address"
        },
        {
          "internalType": "address",
          "name": "newAccount",
          "type": "address"
        }
      ],
      "name": "recoverAccount",
      "outputs": [],
      "stateMutability": "nonpayable",
      "type": "function"
    },
    {
      "inputs": [],
      "name": "version",
      "outputs": [
        {
          "internalType": "uint256",
          "name": "",
          "type": "uint256"
        }
      ],
      "stateMutability": "view",
      "type": "function"
    }
  ],
  "bytecode": "0x608060405234801561001057600080fd5b50611463806100206000396000f3fe608060405234801561001057600080fd5b506004361061007b5760e060020a60003504630c91465e81146100805780632773d0fa146100c257806345748b42146100fa57806354fd4d5014610122578063597b2e9b1461012a5780636d69d99a1461025a578063c71cbcf314610300578063cc2a9a5b1461032e575b600080fd5b6100a66004803603602081101561009657600080fd5b5035600160a060020a031661037c565b60408051600160a060020a039092168252519081900360200190f35b6100e8600480360360208110156100d857600080fd5b5035600160a060020a0316610397565b60408051918252519081900360200190f35b6101206004803603602081101561011057600080fd5b5035600160a060020a03166103a9565b005b6100e86104bf565b6101e56004803603606081101561014057600080fd5b600160a060020a038235169160208101359181019060608101604082013564010000000081111561017057600080fd5b82018360208201111561018257600080fd5b803590602001918460018302840111640100000000831117156101a457600080fd5b91908080601f0160208091040260200160405190810160405280939291908181526020018383808284376000920191909152509295506104c5945050505050565b6040805160208082528351818301528351919283929083019185019080838360005b8381101561021f578181015183820152602001610207565b50505050905090810190601f16801561024c5780820380516001836020036101000a031916815260200191505b509250505060405180910390f35b6101206004803603602081101561027057600080fd5b81019060208101813564010000000081111561028b57600080fd5b82018360208201111561029d57600080fd5b803590602001918460018302840111640100000000831117156102bf57600080fd5b91908080601f0160208091040260200160405190810160405280939291908181526020018383808284376000920191909152509295506106b9945050505050565b6101206004803603604081101561031657600080fd5b50600160a060020a0381358116916020013516610919565b610120600480360360c081101561034457600080fd5b50600160a060020a038135811691602081013582169160408201358116916060810135821691608082013581169160a0013516610a66565b600660205260009081526040902054600160a060020a031681565b60076020526000908152604090205481565b6005546040805160e460020a6306554adf0281523360048201529051600160a060020a0390921691636554adf091602480820192602092909190829003018186803b1580156103f757600080fd5b505afa15801561040b573d6000803e3d6000fd5b505050506040513d602081101561042157600080fd5b5051610477576040805160e560020a62461bcd02815260206004820152601860248201527f4f6e6c7920697373756572732061726520616c6c6f7765640000000000000000604482015290519081900360640190fd5b600160a060020a03811660008181526007602052604080822042612710019055517fb95ece7391a260096614d2b042c6cca83dcc5d131f72bc57a157ee2502e7ce539190a250565b60015481565b33600090815260066020526040902054606090600160a060020a03166104ea57600080fd5b33600090815260066020908152604080832054905160e060020a63d7f31eb9028152600160a060020a038881166004830190815260248301899052606060448401908152885160648501528851929094169594869463d7f31eb9948c948c948c9490939260840191908501908083838d5b8381101561057357818101518382015260200161055b565b50505050905090810190601f1680156105a05780820380516001836020036101000a031916815260200191505b50945050505050600060405180830381600087803b1580156105c157600080fd5b505af11580156105d5573d6000803e3d6000fd5b505050506040513d6000823e601f3d908101601f1916820160405260208110156105fe57600080fd5b810190808051604051939291908464010000000082111561061e57600080fd5b90830190602082018581111561063357600080fd5b825164010000000081118282018810171561064d57600080fd5b82525081516020918201929091019080838360005b8381101561067a578181015183820152602001610662565b50505050905090810190601f1680156106a75780820380516001836020036101000a031916815260200191505b50604052509198975050505050505050565b33806106c457600080fd5b33600081815260076020526040902054158015906106f95750600160a060020a03811660009081526007602052604090205442105b61070257600080fd5b600060405161071090610d03565b604051809103906000f08015801561072c573d6000803e3d6000fd5b503360009081526006602090815260408083208054600160a060020a031916600160a060020a038681169182179092556007845282852085905560048054935160e060020a63d7f31eb902815293909216918301828152602484018690526060604485019081528b5160648601528b51979850919663d7f31eb996939593948c9492939260849091019190850190808383895b838110156107d75781810151838201526020016107bf565b50505050905090810190601f1680156108045780820380516001836020036101000a031916815260200191505b50945050505050600060405180830381600087803b15801561082557600080fd5b505af1158015610839573d6000803e3d6000fd5b505050506040513d6000823e601f3d908101601f19168201604052602081101561086257600080fd5b810190808051604051939291908464010000000082111561088257600080fd5b90830190602082018581111561089757600080fd5b82516401000000008111828201881017156108b157600080fd5b82525081516020918201929091019080838360005b838110156108de5781810151838201526020016108c6565b50505050905090810190601f16801561090b5780820380516001836020036101000a031916815260200191505b506040525050505050505050565b6005546040805160e460020a6306554adf0281523360048201529051600160a060020a0390921691636554adf091602480820192602092909190829003018186803b15801561096757600080fd5b505afa15801561097b573d6000803e3d6000fd5b505050506040513d602081101561099157600080fd5b50516109e7576040805160e560020a62461bcd02815260206004820152601860248201527f4f6e6c7920697373756572732061726520616c6c6f7765640000000000000000604482015290519081900360640190fd5b600160a060020a0382811660008181526006602090815260408083208054878716808652838620805492909816600160a060020a0319928316179097559385905280549093169092558151938452905133937ff5cf2e915faa705d003410f0f65cd59606d22f8e7fb7361a015d6a00b7723d9992908290030190a35050565b600054610100900460ff1680610a7f5750610a7f610cfd565b80610a8d575060005460ff16155b610acb5760405160e560020a62461bcd02815260040180806020018281038252602e815260200180611400602e913960400191505060405180910390fd5b600054610100900460ff16158015610af6576000805460ff1961ff0019909116610100171660011790555b60028054600160a060020a03808716600160a060020a031992831617909255600380548684169083161790556004805492851692909116919091179055604051600090610b4290610d03565b604051809103906000f080158015610b5e573d6000803e3d6000fd5b50336000908152600660205260408082208054600160a060020a0319908116600160a060020a03868116918217909355600580549092168d8416179182905583517fc4d66de800000000000000000000000000000000000000000000000000000000815260048101919091529251949550169263c4d66de89260248084019391929182900301818387803b158015610bf557600080fd5b505af1158015610c09573d6000803e3d6000fd5b5050505085600160a060020a031663c4d66de8826040518263ffffffff1660e060020a0281526004018082600160a060020a03168152602001915050600060405180830381600087803b158015610c5f57600080fd5b505af1158015610c73573d6000803e3d6000fd5b5050505087600160a060020a031663c4d66de8826040518263ffffffff1660e060020a0281526004018082600160a060020a03168152602001915050600060405180830381600087803b158015610cc957600080fd5b505af1158015610cdd573d6000803e3d6000fd5b50505050508015610cf4576000805461ff00191690555b50505050505050565b303b1590565b6106ef80610d118339019056fe608060405234801561001057600080fd5b506000610024640100000000610073810204565b60008054600160a060020a031916600160a060020a0383169081178255604051929350917f8be0079c531659141344cd1fd0a4f28419497f9722a3daafe3b4186f6b6457e0908290a350610077565b3390565b610669806100866000396000f3fe608060405234801561001057600080fd5b5060043610610068577c01000000000000000000000000000000000000000000000000000000006000350463715018a6811461006d5780638da5cb5b14610077578063d7f31eb91461009b578063f2fde38b146101cb575b600080fd5b6100756101f1565b005b61007f6102a3565b60408051600160a060020a039092168252519081900360200190f35b610156600480360360608110156100b157600080fd5b600160a060020a03823516916020810135918101906060810160408201356401000000008111156100e157600080fd5b8201836020820111156100f357600080fd5b8035906020019184600183028401116401000000008311171561011557600080fd5b91908080601f0160208091040260200160405190810160405280939291908181526020018383808284376000920191909152509295506102b2945050505050565b6040805160208082528351818301528351919283929083019185019080838360005b83811015610190578181015183820152602001610178565b50505050905090810190601f1680156101bd5780820380516001836020036101000a031916815260200191505b509250505060405180910390f35b610075600480360360208110156101e157600080fd5b5035600160a060020a03166104de565b6101f96105e9565b600054600160a060020a0390811691161461024c576040805160e560020a62461bcd0281526020600482018190526024820152600080516020610614833981519152604482015290519081900360640190fd5b60008054604051600160a060020a03909116907f8be0079c531659141344cd1fd0a4f28419497f9722a3daafe3b4186f6b6457e0908390a36000805473ffffffffffffffffffffffffffffffffffffffff19169055565b600054600160a060020a031690565b60606102bc6105e9565b600054600160a060020a0390811691161461030f576040805160e560020a62461bcd0281526020600482018190526024820152600080516020610614833981519152604482015290519081900360640190fd5b60008085600160a060020a031685856040518082805190602001908083835b6020831061034d5780518252601f19909201916020918201910161032e565b6001836020036101000a03801982511681845116808217855250505050505090500191505060006040518083038185875af1925050503d80600081146103af576040519150601f19603f3d011682016040523d82523d6000602084013e6103b4565b606091505b5091509150816103c357600080fd5b85600160a060020a03167f8cd7411f6d2d65dd25e1b8e9e19f9b5b720c01622c9e25049b72837b1bbc1743868684604051808481526020018060200180602001838103835285818151815260200191508051906020019080838360005b83811015610438578181015183820152602001610420565b50505050905090810190601f1680156104655780820380516001836020036101000a031916815260200191505b50838103825284518152845160209182019186019080838360005b83811015610498578181015183820152602001610480565b50505050905090810190601f1680156104c55780820380516001836020036101000a031916815260200191505b509550505050505060405180910390a295945050505050565b6104e66105e9565b600054600160a060020a03908116911614610539576040805160e560020a62461bcd0281526020600482018190526024820152600080516020610614833981519152604482015290519081900360640190fd5b600160a060020a0381166105815760405160e560020a62461bcd0281526004018080602001828103825260268152602001806105ee6026913960400191505060405180910390fd5b60008054604051600160a060020a03808516939216917f8be0079c531659141344cd1fd0a4f28419497f9722a3daafe3b4186f6b6457e091a36000805473ffffffffffffffffffffffffffffffffffffffff1916600160a060020a0392909216919091179055565b339056fe4f776e61626c653a206e6577206f776e657220697320746865207a65726f20616464726573734f776e61626c653a2063616c6c6572206973206e6f7420746865206f776e6572a264697066735822122013d702fb00cf97f6aef347863ef9ada968e712c2310ed3594e593ab9dc152e8e64736f6c63430007060033496e697469616c697a61626c653a20636f6e747261637420697320616c726561647920696e697469616c697a6564a2646970667358221220c010ed9fb00b326e78d7230837e616d9b71e51b39752e9d220aa894815e037b364736f6c63430007060033",
  "linkReferences": {},
  "deployedLinkReferences": {}
}