{
  "contracts/libs/Eidas.sol": {
    "Eidas": {
      "abi": [
        {
          "inputs": [
            {
              "internalType": "enum Eidas.EidasLevel",
              "name": "_eidasLevel",
              "type": "Eidas.EidasLevel"
            },
            {
              "internalType": "enum Eidas.EidasLevel",
              "name": "_level",
              "type": "Eidas.EidasLevel"
            }
          ],
          "name": "atLeast",
          "outputs": [
            {
              "internalType": "bool",
              "name": "",
              "type": "bool"
            }
          ],
          "stateMutability": "pure",
          "type": "function"
        },
        {
          "inputs": [
            {
              "internalType": "enum Eidas.EidasLevel",
              "name": "_eidasLevel",
              "type": "Eidas.EidasLevel"
            }
          ],
          "name": "atLeastLow",
          "outputs": [
            {
              "internalType": "bool",
              "name": "",
              "type": "bool"
            }
          ],
          "stateMutability": "pure",
          "type": "function"
        }
      ],
      "evm": {
        "bytecode": {
          "linkReferences": {},
          "object": "61011c610026600b82828239805160001a60731461001957fe5b30600052607381538281f3fe73000000000000000000000000000000000000000030146080604052600436106059577c010000000000000000000000000000000000000000000000000000000060003504630fa78bf78114605e578063f264148314608f575b600080fd5b607b60048036036020811015607257600080fd5b503560ff1660b4565b604080519115158252519081900360200190f35b607b6004803603604081101560a357600080fd5b5060ff8135811691602001351660c5565b600060bf82600260c5565b92915050565b600081600481111560d257fe5b83600481111560dd57fe5b1015939250505056fea26469706673582212201d5e487d2ade674ce4b8b9fada1507804724d11cdef30fc9258117115145091664736f6c63430007060033",
          "opcodes": "PUSH2 0x11C PUSH2 0x26 PUSH1 0xB DUP3 DUP3 DUP3 CODECOPY DUP1 MLOAD PUSH1 0x0 BYTE PUSH1 0x73 EQ PUSH2 0x19 JUMPI INVALID JUMPDEST ADDRESS PUSH1 0x0 MSTORE PUSH1 0x73 DUP2 MSTORE8 DUP3 DUP2 RETURN INVALID PUSH20 0x0 ADDRESS EQ PUSH1 0x80 PUSH1 0x40 MSTORE PUSH1 0x4 CALLDATASIZE LT PUSH1 0x59 JUMPI PUSH29 0x100000000000000000000000000000000000000000000000000000000 PUSH1 0x0 CALLDATALOAD DIV PUSH4 0xFA78BF7 DUP2 EQ PUSH1 0x5E JUMPI DUP1 PUSH4 0xF2641483 EQ PUSH1 0x8F JUMPI JUMPDEST PUSH1 0x0 DUP1 REVERT JUMPDEST PUSH1 0x7B PUSH1 0x4 DUP1 CALLDATASIZE SUB PUSH1 0x20 DUP2 LT ISZERO PUSH1 0x72 JUMPI PUSH1 0x0 DUP1 REVERT JUMPDEST POP CALLDATALOAD PUSH1 0xFF AND PUSH1 0xB4 JUMP JUMPDEST PUSH1 0x40 DUP1 MLOAD SWAP2 ISZERO ISZERO DUP3 MSTORE MLOAD SWAP1 DUP2 SWAP1 SUB PUSH1 0x20 ADD SWAP1 RETURN JUMPDEST PUSH1 0x7B PUSH1 0x4 DUP1 CALLDATASIZE SUB PUSH1 0x40 DUP2 LT ISZERO PUSH1 0xA3 JUMPI PUSH1 0x0 DUP1 REVERT JUMPDEST POP PUSH1 0xFF DUP2 CALLDATALOAD DUP2 AND SWAP2 PUSH1 0x20 ADD CALLDATALOAD AND PUSH1 0xC5 JUMP JUMPDEST PUSH1 0x0 PUSH1 0xBF DUP3 PUSH1 0x2 PUSH1 0xC5 JUMP JUMPDEST SWAP3 SWAP2 POP POP JUMP JUMPDEST PUSH1 0x0 DUP2 PUSH1 0x4 DUP2 GT ISZERO PUSH1 0xD2 JUMPI INVALID JUMPDEST DUP4 PUSH1 0x4 DUP2 GT ISZERO PUSH1 0xDD JUMPI INVALID JUMPDEST LT ISZERO SWAP4 SWAP3 POP POP POP JUMP INVALID LOG2 PUSH5 0x6970667358 0x22 SLT KECCAK256 SAR 0x5E 0x48 PUSH30 0x2ADE674CE4B8B9FADA1507804724D11CDEF30FC925811711514509166473 PUSH16 0x6C634300070600330000000000000000 "
        },
        "methodIdentifiers": {
          "atLeast(Eidas.EidasLevel,Eidas.EidasLevel)": "f2641483",
          "atLeastLow(Eidas.EidasLevel)": "0fa78bf7"
        }
      }
    }
  }
}