{
  "contracts/registry/AlastriaPresentationRegistry.sol": {
    "AlastriaPresentationRegistry": {
      "abi": [
        {
          "anonymous": false,
          "inputs": [
            {
              "indexed": false,
              "internalType": "bytes32",
              "name": "hash",
              "type": "bytes32"
            },
            {
              "indexed": false,
              "internalType": "enum AlastriaPresentationRegistry.Status",
              "name": "status",
              "type": "uint8"
            }
          ],
          "name": "PresentationUpdated",
          "type": "event"
        },
        {
          "inputs": [
            {
              "internalType": "bytes32",
              "name": "subjectPresentationHash",
              "type": "bytes32"
            },
            {
              "internalType": "string",
              "name": "URI",
              "type": "string"
            }
          ],
          "name": "addSubjectPresentation",
          "outputs": [],
          "stateMutability": "nonpayable",
          "type": "function"
        },
        {
          "inputs": [
            {
              "internalType": "enum AlastriaPresentationRegistry.Status",
              "name": "subjectStatus",
              "type": "uint8"
            },
            {
              "internalType": "enum AlastriaPresentationRegistry.Status",
              "name": "receiverStatus",
              "type": "uint8"
            }
          ],
          "name": "getPresentationStatus",
          "outputs": [
            {
              "internalType": "enum AlastriaPresentationRegistry.Status",
              "name": "",
              "type": "uint8"
            }
          ],
          "stateMutability": "pure",
          "type": "function"
        },
        {
          "inputs": [
            {
              "internalType": "address",
              "name": "receiver",
              "type": "address"
            },
            {
              "internalType": "bytes32",
              "name": "receiverPresentationHash",
              "type": "bytes32"
            }
          ],
          "name": "getReceiverPresentationStatus",
          "outputs": [
            {
              "internalType": "bool",
              "name": "exists",
              "type": "bool"
            },
            {
              "internalType": "enum AlastriaPresentationRegistry.Status",
              "name": "status",
              "type": "uint8"
            }
          ],
          "stateMutability": "view",
          "type": "function"
        },
        {
          "inputs": [
            {
              "internalType": "address",
              "name": "subject",
              "type": "address"
            }
          ],
          "name": "getSubjectPresentationList",
          "outputs": [
            {
              "internalType": "uint256",
              "name": "",
              "type": "uint256"
            },
            {
              "internalType": "bytes32[]",
              "name": "",
              "type": "bytes32[]"
            }
          ],
          "stateMutability": "view",
          "type": "function"
        },
        {
          "inputs": [
            {
              "internalType": "address",
              "name": "subject",
              "type": "address"
            },
            {
              "internalType": "bytes32",
              "name": "subjectPresentationHash",
              "type": "bytes32"
            }
          ],
          "name": "getSubjectPresentationStatus",
          "outputs": [
            {
              "internalType": "bool",
              "name": "exists",
              "type": "bool"
            },
            {
              "internalType": "enum AlastriaPresentationRegistry.Status",
              "name": "status",
              "type": "uint8"
            }
          ],
          "stateMutability": "view",
          "type": "function"
        },
        {
          "inputs": [
            {
              "internalType": "address",
              "name": "_previousPublishedVersion",
              "type": "address"
            }
          ],
          "name": "initialize",
          "outputs": [],
          "stateMutability": "nonpayable",
          "type": "function"
        },
        {
          "inputs": [],
          "name": "previousPublishedVersion",
          "outputs": [
            {
              "internalType": "address",
              "name": "",
              "type": "address"
            }
          ],
          "stateMutability": "view",
          "type": "function"
        },
        {
          "inputs": [
            {
              "internalType": "address",
              "name": "",
              "type": "address"
            },
            {
              "internalType": "uint256",
              "name": "",
              "type": "uint256"
            }
          ],
          "name": "subjectPresentationListRegistry",
          "outputs": [
            {
              "internalType": "bytes32",
              "name": "",
              "type": "bytes32"
            }
          ],
          "stateMutability": "view",
          "type": "function"
        },
        {
          "inputs": [
            {
              "internalType": "address",
              "name": "",
              "type": "address"
            },
            {
              "internalType": "bytes32",
              "name": "",
              "type": "bytes32"
            }
          ],
          "name": "subjectPresentationRegistry",
          "outputs": [
            {
              "internalType": "bool",
              "name": "exists",
              "type": "bool"
            },
            {
              "internalType": "enum AlastriaPresentationRegistry.Status",
              "name": "status",
              "type": "uint8"
            },
            {
              "internalType": "string",
              "name": "URI",
              "type": "string"
            }
          ],
          "stateMutability": "view",
          "type": "function"
        },
        {
          "inputs": [
            {
              "internalType": "bytes32",
              "name": "receiverPresentationHash",
              "type": "bytes32"
            },
            {
              "internalType": "enum AlastriaPresentationRegistry.Status",
              "name": "status",
              "type": "uint8"
            }
          ],
          "name": "updateReceiverPresentation",
          "outputs": [],
          "stateMutability": "nonpayable",
          "type": "function"
        },
        {
          "inputs": [
            {
              "internalType": "bytes32",
              "name": "subjectPresentationHash",
              "type": "bytes32"
            },
            {
              "internalType": "enum AlastriaPresentationRegistry.Status",
              "name": "status",
              "type": "uint8"
            }
          ],
          "name": "updateSubjectPresentation",
          "outputs": [],
          "stateMutability": "nonpayable",
          "type": "function"
        },
        {
          "inputs": [],
          "name": "version",
          "outputs": [
            {
              "internalType": "int256",
              "name": "",
              "type": "int256"
            }
          ],
          "stateMutability": "view",
          "type": "function"
        }
      ],
      "evm": {
        "bytecode": {
          "linkReferences": {},
          "object": "61010060405260016080818152600060a081905260c09290925260e09190915261002d90600390600461007c565b5060408051608081018252600080825260016020830181905292820152606081019190915261005f906004908161007c565b506005805460ff1916905534801561007657600080fd5b50610123565b6001830191839082156100fe5791602002820160005b838211156100cf57835183826101000a81548160ff0219169083151502179055509260200192600101602081600001049283019260010302610092565b80156100fc5782816101000a81549060ff02191690556001016020816000010492830192600103026100cf565b505b5061010a92915061010e565b5090565b5b8082111561010a576000815560010161010f565b610bf6806101326000396000f3fe608060405234801561001057600080fd5b50600436106100d1576000357c0100000000000000000000000000000000000000000000000000000000900480636104464f1161008e5780636104464f146103235780639373014a14610347578063c00dcd0e14610373578063c4d66de8146103f4578063e47345931461041a578063e64af93814610446576100d1565b8063034f8408146100d65780631e54e3251461011f5780633000dc39146101de5780634e3a5de5146102065780635205080f146102b357806354fd4d5014610309575b600080fd5b6100fe600480360360408110156100ec57600080fd5b5060ff8135811691602001351661046c565b6040518082600381111561010e57fe5b815260200191505060405180910390f35b61014b6004803603604081101561013557600080fd5b50600160a060020a038135169060200135610502565b60405180841515815260200183600381111561016357fe5b815260200180602001828103825283818151815260200191508051906020019080838360005b838110156101a1578181015183820152602001610189565b50505050905090810190601f1680156101ce5780820380516001836020036101000a031916815260200191505b5094505050505060405180910390f35b610204600480360360408110156101f457600080fd5b508035906020013560ff166105bb565b005b6102046004803603604081101561021c57600080fd5b8135919081019060408101602082013564010000000081111561023e57600080fd5b82018360208201111561025057600080fd5b8035906020019184600183028401116401000000008311171561027257600080fd5b91908080601f0160208091040260200160405190810160405280939291908181526020018383808284376000920191909152509295506106f2945050505050565b6102df600480360360408110156102c957600080fd5b50600160a060020a0381351690602001356107c3565b6040518083151581526020018260038111156102f757fe5b81526020019250505060405180910390f35b610311610812565b60408051918252519081900360200190f35b61032b610818565b60408051600160a060020a039092168252519081900360200190f35b6102df6004803603604081101561035d57600080fd5b50600160a060020a038135169060200135610827565b6103996004803603602081101561038957600080fd5b5035600160a060020a0316610876565b6040518083815260200180602001828103825283818151815260200191508051906020019060200280838360005b838110156103df5781810151838201526020016103c7565b50505050905001935050505060405180910390f35b6102046004803603602081101561040a57600080fd5b5035600160a060020a03166108eb565b6103116004803603604081101561043057600080fd5b50600160a060020a0381351690602001356109d5565b6102046004803603604081101561045c57600080fd5b508035906020013560ff16610a06565b6000828181600381111561047c57fe5b101580156104965750600381600381111561049357fe5b11155b61049f57600080fd5b8260008160038111156104ae57fe5b101580156104c8575060038160038111156104c557fe5b11155b6104d157600080fd5b8360038111156104dd57fe5b8560038111156104e957fe5b106104f6578492506104fa565b8392505b505092915050565b6006602090815260009283526040808420825291835291819020805460018083018054855160026101009483161585026000190190921691909104601f810188900488028201880190965285815260ff80851697939094049093169490918301828280156105b15780601f10610586576101008083540402835291602001916105b1565b820191906000526020600020905b81548152906001019060200180831161059457829003601f168201915b5050505050905083565b8060008160038111156105ca57fe5b101580156105e4575060038160038111156105e157fe5b11155b6105ed57600080fd5b336000908152600860209081526040808320868452909152902060055460ff1615801561063957508054610100900460ff16600381111561062a57fe5b83600381111561063657fe5b11155b1561064457506106ed565b600483600381111561065257fe5b6004811061065c57fe5b602081049091015460ff601f9092166101000a900416156106eb57805460ff19166001178082558390829061ff00191661010083600381111561069b57fe5b02179055507f52035ff46a15e119b23cfbf756f83f68ee8740523a40b78f621fdd44f091fb388484604051808381526020018260038111156106d957fe5b81526020019250505060405180910390a15b505b505050565b33600090815260066020908152604080832085845290915290205460ff161561071a57600080fd5b60408051606081019091526001815260208101600081526020908101839052336000908152600682526040808220868352835290208251815460ff191690151517808255918301519091829061ff00191661010083600381111561077a57fe5b02179055506040820151805161079a916001840191602090910190610af1565b505033600090815260076020908152604082208054600181018255908352912001929092555050565b60008083600160a060020a0381166107da57600080fd5b505050600160a060020a03919091166000908152600660209081526040808320938352929052205460ff808216926101009092041690565b60015481565b600254600160a060020a031681565b60008083600160a060020a03811661083e57600080fd5b505050600160a060020a03919091166000908152600860209081526040808320938352929052205460ff808216926101009092041690565b600160a060020a03811660009081526007602090815260408083208054825181850281018501909352808352606093909290829084908301828280156108db57602002820191906000526020600020905b8154815260200190600101908083116108c7575b5050505050905091509150915091565b600054610100900460ff16806109045750610904610aeb565b80610912575060005460ff16155b610967576040517f08c379a000000000000000000000000000000000000000000000000000000000815260040180806020018281038252602e815260200180610b93602e913960400191505060405180910390fd5b600054610100900460ff16158015610992576000805460ff1961ff0019909116610100171660011790555b60046001556002805473ffffffffffffffffffffffffffffffffffffffff1916600160a060020a03841617905580156109d1576000805461ff00191690555b5050565b600760205281600052604060002081815481106109f157600080fd5b90600052602060002001600091509150505481565b806000816003811115610a1557fe5b10158015610a2f57506003816003811115610a2c57fe5b11155b610a3857600080fd5b3360009081526006602090815260408083208684529091529020805460ff16610a6157506106ed565b60055460ff16158015610a9357508054610100900460ff166003811115610a8457fe5b836003811115610a9057fe5b11155b15610a9e57506106ed565b6003836003811115610aac57fe5b60048110610ab657fe5b602081049091015460ff601f9092166101000a900416156106eb5780548390829061ff00191661010083600381111561069b57fe5b303b1590565b828054600181600116156101000203166002900490600052602060002090601f016020900481019282610b275760008555610b6d565b82601f10610b4057805160ff1916838001178555610b6d565b82800160010185558215610b6d579182015b82811115610b6d578251825591602001919060010190610b52565b50610b79929150610b7d565b5090565b5b80821115610b795760008155600101610b7e56fe496e697469616c697a61626c653a20636f6e747261637420697320616c726561647920696e697469616c697a6564a264697066735822122054fbc04bb3d899a5ff91d78a4fe6134b3154b4cb6187124e0b3be069ae58b58e64736f6c63430007060033",
          "opcodes": "PUSH2 0x100 PUSH1 0x40 MSTORE PUSH1 0x1 PUSH1 0x80 DUP2 DUP2 MSTORE PUSH1 0x0 PUSH1 0xA0 DUP2 SWAP1 MSTORE PUSH1 0xC0 SWAP3 SWAP1 SWAP3 MSTORE PUSH1 0xE0 SWAP2 SWAP1 SWAP2 MSTORE PUSH2 0x2D SWAP1 PUSH1 0x3 SWAP1 PUSH1 0x4 PUSH2 0x7C JUMP JUMPDEST POP PUSH1 0x40 DUP1 MLOAD PUSH1 0x80 DUP2 ADD DUP3 MSTORE PUSH1 0x0 DUP1 DUP3 MSTORE PUSH1 0x1 PUSH1 0x20 DUP4 ADD DUP2 SWAP1 MSTORE SWAP3 DUP3 ADD MSTORE PUSH1 0x60 DUP2 ADD SWAP2 SWAP1 SWAP2 MSTORE PUSH2 0x5F SWAP1 PUSH1 0x4 SWAP1 DUP2 PUSH2 0x7C JUMP JUMPDEST POP PUSH1 0x5 DUP1 SLOAD PUSH1 0xFF NOT AND SWAP1 SSTORE CALLVALUE DUP1 ISZERO PUSH2 0x76 JUMPI PUSH1 0x0 DUP1 REVERT JUMPDEST POP PUSH2 0x123 JUMP JUMPDEST PUSH1 0x1 DUP4 ADD SWAP2 DUP4 SWAP1 DUP3 ISZERO PUSH2 0xFE JUMPI SWAP2 PUSH1 0x20 MUL DUP3 ADD PUSH1 0x0 JUMPDEST DUP4 DUP3 GT ISZERO PUSH2 0xCF JUMPI DUP4 MLOAD DUP4 DUP3 PUSH2 0x100 EXP DUP2 SLOAD DUP2 PUSH1 0xFF MUL NOT AND SWAP1 DUP4 ISZERO ISZERO MUL OR SWAP1 SSTORE POP SWAP3 PUSH1 0x20 ADD SWAP3 PUSH1 0x1 ADD PUSH1 0x20 DUP2 PUSH1 0x0 ADD DIV SWAP3 DUP4 ADD SWAP3 PUSH1 0x1 SUB MUL PUSH2 0x92 JUMP JUMPDEST DUP1 ISZERO PUSH2 0xFC JUMPI DUP3 DUP2 PUSH2 0x100 EXP DUP2 SLOAD SWAP1 PUSH1 0xFF MUL NOT AND SWAP1 SSTORE PUSH1 0x1 ADD PUSH1 0x20 DUP2 PUSH1 0x0 ADD DIV SWAP3 DUP4 ADD SWAP3 PUSH1 0x1 SUB MUL PUSH2 0xCF JUMP JUMPDEST POP JUMPDEST POP PUSH2 0x10A SWAP3 SWAP2 POP PUSH2 0x10E JUMP JUMPDEST POP SWAP1 JUMP JUMPDEST JUMPDEST DUP1 DUP3 GT ISZERO PUSH2 0x10A JUMPI PUSH1 0x0 DUP2 SSTORE PUSH1 0x1 ADD PUSH2 0x10F JUMP JUMPDEST PUSH2 0xBF6 DUP1 PUSH2 0x132 PUSH1 0x0 CODECOPY PUSH1 0x0 RETURN INVALID PUSH1 0x80 PUSH1 0x40 MSTORE CALLVALUE DUP1 ISZERO PUSH2 0x10 JUMPI PUSH1 0x0 DUP1 REVERT JUMPDEST POP PUSH1 0x4 CALLDATASIZE LT PUSH2 0xD1 JUMPI PUSH1 0x0 CALLDATALOAD PUSH29 0x100000000000000000000000000000000000000000000000000000000 SWAP1 DIV DUP1 PUSH4 0x6104464F GT PUSH2 0x8E JUMPI DUP1 PUSH4 0x6104464F EQ PUSH2 0x323 JUMPI DUP1 PUSH4 0x9373014A EQ PUSH2 0x347 JUMPI DUP1 PUSH4 0xC00DCD0E EQ PUSH2 0x373 JUMPI DUP1 PUSH4 0xC4D66DE8 EQ PUSH2 0x3F4 JUMPI DUP1 PUSH4 0xE4734593 EQ PUSH2 0x41A JUMPI DUP1 PUSH4 0xE64AF938 EQ PUSH2 0x446 JUMPI PUSH2 0xD1 JUMP JUMPDEST DUP1 PUSH4 0x34F8408 EQ PUSH2 0xD6 JUMPI DUP1 PUSH4 0x1E54E325 EQ PUSH2 0x11F JUMPI DUP1 PUSH4 0x3000DC39 EQ PUSH2 0x1DE JUMPI DUP1 PUSH4 0x4E3A5DE5 EQ PUSH2 0x206 JUMPI DUP1 PUSH4 0x5205080F EQ PUSH2 0x2B3 JUMPI DUP1 PUSH4 0x54FD4D50 EQ PUSH2 0x309 JUMPI JUMPDEST PUSH1 0x0 DUP1 REVERT JUMPDEST PUSH2 0xFE PUSH1 0x4 DUP1 CALLDATASIZE SUB PUSH1 0x40 DUP2 LT ISZERO PUSH2 0xEC JUMPI PUSH1 0x0 DUP1 REVERT JUMPDEST POP PUSH1 0xFF DUP2 CALLDATALOAD DUP2 AND SWAP2 PUSH1 0x20 ADD CALLDATALOAD AND PUSH2 0x46C JUMP JUMPDEST PUSH1 0x40 MLOAD DUP1 DUP3 PUSH1 0x3 DUP2 GT ISZERO PUSH2 0x10E JUMPI INVALID JUMPDEST DUP2 MSTORE PUSH1 0x20 ADD SWAP2 POP POP PUSH1 0x40 MLOAD DUP1 SWAP2 SUB SWAP1 RETURN JUMPDEST PUSH2 0x14B PUSH1 0x4 DUP1 CALLDATASIZE SUB PUSH1 0x40 DUP2 LT ISZERO PUSH2 0x135 JUMPI PUSH1 0x0 DUP1 REVERT JUMPDEST POP PUSH1 0x1 PUSH1 0xA0 PUSH1 0x2 EXP SUB DUP2 CALLDATALOAD AND SWAP1 PUSH1 0x20 ADD CALLDATALOAD PUSH2 0x502 JUMP JUMPDEST PUSH1 0x40 MLOAD DUP1 DUP5 ISZERO ISZERO DUP2 MSTORE PUSH1 0x20 ADD DUP4 PUSH1 0x3 DUP2 GT ISZERO PUSH2 0x163 JUMPI INVALID JUMPDEST DUP2 MSTORE PUSH1 0x20 ADD DUP1 PUSH1 0x20 ADD DUP3 DUP2 SUB DUP3 MSTORE DUP4 DUP2 DUP2 MLOAD DUP2 MSTORE PUSH1 0x20 ADD SWAP2 POP DUP1 MLOAD SWAP1 PUSH1 0x20 ADD SWAP1 DUP1 DUP4 DUP4 PUSH1 0x0 JUMPDEST DUP4 DUP2 LT ISZERO PUSH2 0x1A1 JUMPI DUP2 DUP2 ADD MLOAD DUP4 DUP3 ADD MSTORE PUSH1 0x20 ADD PUSH2 0x189 JUMP JUMPDEST POP POP POP POP SWAP1 POP SWAP1 DUP2 ADD SWAP1 PUSH1 0x1F AND DUP1 ISZERO PUSH2 0x1CE JUMPI DUP1 DUP3 SUB DUP1 MLOAD PUSH1 0x1 DUP4 PUSH1 0x20 SUB PUSH2 0x100 EXP SUB NOT AND DUP2 MSTORE PUSH1 0x20 ADD SWAP2 POP JUMPDEST POP SWAP5 POP POP POP POP POP PUSH1 0x40 MLOAD DUP1 SWAP2 SUB SWAP1 RETURN JUMPDEST PUSH2 0x204 PUSH1 0x4 DUP1 CALLDATASIZE SUB PUSH1 0x40 DUP2 LT ISZERO PUSH2 0x1F4 JUMPI PUSH1 0x0 DUP1 REVERT JUMPDEST POP DUP1 CALLDATALOAD SWAP1 PUSH1 0x20 ADD CALLDATALOAD PUSH1 0xFF AND PUSH2 0x5BB JUMP JUMPDEST STOP JUMPDEST PUSH2 0x204 PUSH1 0x4 DUP1 CALLDATASIZE SUB PUSH1 0x40 DUP2 LT ISZERO PUSH2 0x21C JUMPI PUSH1 0x0 DUP1 REVERT JUMPDEST DUP2 CALLDATALOAD SWAP2 SWAP1 DUP2 ADD SWAP1 PUSH1 0x40 DUP2 ADD PUSH1 0x20 DUP3 ADD CALLDATALOAD PUSH5 0x100000000 DUP2 GT ISZERO PUSH2 0x23E JUMPI PUSH1 0x0 DUP1 REVERT JUMPDEST DUP3 ADD DUP4 PUSH1 0x20 DUP3 ADD GT ISZERO PUSH2 0x250 JUMPI PUSH1 0x0 DUP1 REVERT JUMPDEST DUP1 CALLDATALOAD SWAP1 PUSH1 0x20 ADD SWAP2 DUP5 PUSH1 0x1 DUP4 MUL DUP5 ADD GT PUSH5 0x100000000 DUP4 GT OR ISZERO PUSH2 0x272 JUMPI PUSH1 0x0 DUP1 REVERT JUMPDEST SWAP2 SWAP1 DUP1 DUP1 PUSH1 0x1F ADD PUSH1 0x20 DUP1 SWAP2 DIV MUL PUSH1 0x20 ADD PUSH1 0x40 MLOAD SWAP1 DUP2 ADD PUSH1 0x40 MSTORE DUP1 SWAP4 SWAP3 SWAP2 SWAP1 DUP2 DUP2 MSTORE PUSH1 0x20 ADD DUP4 DUP4 DUP1 DUP3 DUP5 CALLDATACOPY PUSH1 0x0 SWAP3 ADD SWAP2 SWAP1 SWAP2 MSTORE POP SWAP3 SWAP6 POP PUSH2 0x6F2 SWAP5 POP POP POP POP POP JUMP JUMPDEST PUSH2 0x2DF PUSH1 0x4 DUP1 CALLDATASIZE SUB PUSH1 0x40 DUP2 LT ISZERO PUSH2 0x2C9 JUMPI PUSH1 0x0 DUP1 REVERT JUMPDEST POP PUSH1 0x1 PUSH1 0xA0 PUSH1 0x2 EXP SUB DUP2 CALLDATALOAD AND SWAP1 PUSH1 0x20 ADD CALLDATALOAD PUSH2 0x7C3 JUMP JUMPDEST PUSH1 0x40 MLOAD DUP1 DUP4 ISZERO ISZERO DUP2 MSTORE PUSH1 0x20 ADD DUP3 PUSH1 0x3 DUP2 GT ISZERO PUSH2 0x2F7 JUMPI INVALID JUMPDEST DUP2 MSTORE PUSH1 0x20 ADD SWAP3 POP POP POP PUSH1 0x40 MLOAD DUP1 SWAP2 SUB SWAP1 RETURN JUMPDEST PUSH2 0x311 PUSH2 0x812 JUMP JUMPDEST PUSH1 0x40 DUP1 MLOAD SWAP2 DUP3 MSTORE MLOAD SWAP1 DUP2 SWAP1 SUB PUSH1 0x20 ADD SWAP1 RETURN JUMPDEST PUSH2 0x32B PUSH2 0x818 JUMP JUMPDEST PUSH1 0x40 DUP1 MLOAD PUSH1 0x1 PUSH1 0xA0 PUSH1 0x2 EXP SUB SWAP1 SWAP3 AND DUP3 MSTORE MLOAD SWAP1 DUP2 SWAP1 SUB PUSH1 0x20 ADD SWAP1 RETURN JUMPDEST PUSH2 0x2DF PUSH1 0x4 DUP1 CALLDATASIZE SUB PUSH1 0x40 DUP2 LT ISZERO PUSH2 0x35D JUMPI PUSH1 0x0 DUP1 REVERT JUMPDEST POP PUSH1 0x1 PUSH1 0xA0 PUSH1 0x2 EXP SUB DUP2 CALLDATALOAD AND SWAP1 PUSH1 0x20 ADD CALLDATALOAD PUSH2 0x827 JUMP JUMPDEST PUSH2 0x399 PUSH1 0x4 DUP1 CALLDATASIZE SUB PUSH1 0x20 DUP2 LT ISZERO PUSH2 0x389 JUMPI PUSH1 0x0 DUP1 REVERT JUMPDEST POP CALLDATALOAD PUSH1 0x1 PUSH1 0xA0 PUSH1 0x2 EXP SUB AND PUSH2 0x876 JUMP JUMPDEST PUSH1 0x40 MLOAD DUP1 DUP4 DUP2 MSTORE PUSH1 0x20 ADD DUP1 PUSH1 0x20 ADD DUP3 DUP2 SUB DUP3 MSTORE DUP4 DUP2 DUP2 MLOAD DUP2 MSTORE PUSH1 0x20 ADD SWAP2 POP DUP1 MLOAD SWAP1 PUSH1 0x20 ADD SWAP1 PUSH1 0x20 MUL DUP1 DUP4 DUP4 PUSH1 0x0 JUMPDEST DUP4 DUP2 LT ISZERO PUSH2 0x3DF JUMPI DUP2 DUP2 ADD MLOAD DUP4 DUP3 ADD MSTORE PUSH1 0x20 ADD PUSH2 0x3C7 JUMP JUMPDEST POP POP POP POP SWAP1 POP ADD SWAP4 POP POP POP POP PUSH1 0x40 MLOAD DUP1 SWAP2 SUB SWAP1 RETURN JUMPDEST PUSH2 0x204 PUSH1 0x4 DUP1 CALLDATASIZE SUB PUSH1 0x20 DUP2 LT ISZERO PUSH2 0x40A JUMPI PUSH1 0x0 DUP1 REVERT JUMPDEST POP CALLDATALOAD PUSH1 0x1 PUSH1 0xA0 PUSH1 0x2 EXP SUB AND PUSH2 0x8EB JUMP JUMPDEST PUSH2 0x311 PUSH1 0x4 DUP1 CALLDATASIZE SUB PUSH1 0x40 DUP2 LT ISZERO PUSH2 0x430 JUMPI PUSH1 0x0 DUP1 REVERT JUMPDEST POP PUSH1 0x1 PUSH1 0xA0 PUSH1 0x2 EXP SUB DUP2 CALLDATALOAD AND SWAP1 PUSH1 0x20 ADD CALLDATALOAD PUSH2 0x9D5 JUMP JUMPDEST PUSH2 0x204 PUSH1 0x4 DUP1 CALLDATASIZE SUB PUSH1 0x40 DUP2 LT ISZERO PUSH2 0x45C JUMPI PUSH1 0x0 DUP1 REVERT JUMPDEST POP DUP1 CALLDATALOAD SWAP1 PUSH1 0x20 ADD CALLDATALOAD PUSH1 0xFF AND PUSH2 0xA06 JUMP JUMPDEST PUSH1 0x0 DUP3 DUP2 DUP2 PUSH1 0x3 DUP2 GT ISZERO PUSH2 0x47C JUMPI INVALID JUMPDEST LT ISZERO DUP1 ISZERO PUSH2 0x496 JUMPI POP PUSH1 0x3 DUP2 PUSH1 0x3 DUP2 GT ISZERO PUSH2 0x493 JUMPI INVALID JUMPDEST GT ISZERO JUMPDEST PUSH2 0x49F JUMPI PUSH1 0x0 DUP1 REVERT JUMPDEST DUP3 PUSH1 0x0 DUP2 PUSH1 0x3 DUP2 GT ISZERO PUSH2 0x4AE JUMPI INVALID JUMPDEST LT ISZERO DUP1 ISZERO PUSH2 0x4C8 JUMPI POP PUSH1 0x3 DUP2 PUSH1 0x3 DUP2 GT ISZERO PUSH2 0x4C5 JUMPI INVALID JUMPDEST GT ISZERO JUMPDEST PUSH2 0x4D1 JUMPI PUSH1 0x0 DUP1 REVERT JUMPDEST DUP4 PUSH1 0x3 DUP2 GT ISZERO PUSH2 0x4DD JUMPI INVALID JUMPDEST DUP6 PUSH1 0x3 DUP2 GT ISZERO PUSH2 0x4E9 JUMPI INVALID JUMPDEST LT PUSH2 0x4F6 JUMPI DUP5 SWAP3 POP PUSH2 0x4FA JUMP JUMPDEST DUP4 SWAP3 POP JUMPDEST POP POP SWAP3 SWAP2 POP POP JUMP JUMPDEST PUSH1 0x6 PUSH1 0x20 SWAP1 DUP2 MSTORE PUSH1 0x0 SWAP3 DUP4 MSTORE PUSH1 0x40 DUP1 DUP5 KECCAK256 DUP3 MSTORE SWAP2 DUP4 MSTORE SWAP2 DUP2 SWAP1 KECCAK256 DUP1 SLOAD PUSH1 0x1 DUP1 DUP4 ADD DUP1 SLOAD DUP6 MLOAD PUSH1 0x2 PUSH2 0x100 SWAP5 DUP4 AND ISZERO DUP6 MUL PUSH1 0x0 NOT ADD SWAP1 SWAP3 AND SWAP2 SWAP1 SWAP2 DIV PUSH1 0x1F DUP2 ADD DUP9 SWAP1 DIV DUP9 MUL DUP3 ADD DUP9 ADD SWAP1 SWAP7 MSTORE DUP6 DUP2 MSTORE PUSH1 0xFF DUP1 DUP6 AND SWAP8 SWAP4 SWAP1 SWAP5 DIV SWAP1 SWAP4 AND SWAP5 SWAP1 SWAP2 DUP4 ADD DUP3 DUP3 DUP1 ISZERO PUSH2 0x5B1 JUMPI DUP1 PUSH1 0x1F LT PUSH2 0x586 JUMPI PUSH2 0x100 DUP1 DUP4 SLOAD DIV MUL DUP4 MSTORE SWAP2 PUSH1 0x20 ADD SWAP2 PUSH2 0x5B1 JUMP JUMPDEST DUP3 ADD SWAP2 SWAP1 PUSH1 0x0 MSTORE PUSH1 0x20 PUSH1 0x0 KECCAK256 SWAP1 JUMPDEST DUP2 SLOAD DUP2 MSTORE SWAP1 PUSH1 0x1 ADD SWAP1 PUSH1 0x20 ADD DUP1 DUP4 GT PUSH2 0x594 JUMPI DUP3 SWAP1 SUB PUSH1 0x1F AND DUP3 ADD SWAP2 JUMPDEST POP POP POP POP POP SWAP1 POP DUP4 JUMP JUMPDEST DUP1 PUSH1 0x0 DUP2 PUSH1 0x3 DUP2 GT ISZERO PUSH2 0x5CA JUMPI INVALID JUMPDEST LT ISZERO DUP1 ISZERO PUSH2 0x5E4 JUMPI POP PUSH1 0x3 DUP2 PUSH1 0x3 DUP2 GT ISZERO PUSH2 0x5E1 JUMPI INVALID JUMPDEST GT ISZERO JUMPDEST PUSH2 0x5ED JUMPI PUSH1 0x0 DUP1 REVERT JUMPDEST CALLER PUSH1 0x0 SWAP1 DUP2 MSTORE PUSH1 0x8 PUSH1 0x20 SWAP1 DUP2 MSTORE PUSH1 0x40 DUP1 DUP4 KECCAK256 DUP7 DUP5 MSTORE SWAP1 SWAP2 MSTORE SWAP1 KECCAK256 PUSH1 0x5 SLOAD PUSH1 0xFF AND ISZERO DUP1 ISZERO PUSH2 0x639 JUMPI POP DUP1 SLOAD PUSH2 0x100 SWAP1 DIV PUSH1 0xFF AND PUSH1 0x3 DUP2 GT ISZERO PUSH2 0x62A JUMPI INVALID JUMPDEST DUP4 PUSH1 0x3 DUP2 GT ISZERO PUSH2 0x636 JUMPI INVALID JUMPDEST GT ISZERO JUMPDEST ISZERO PUSH2 0x644 JUMPI POP PUSH2 0x6ED JUMP JUMPDEST PUSH1 0x4 DUP4 PUSH1 0x3 DUP2 GT ISZERO PUSH2 0x652 JUMPI INVALID JUMPDEST PUSH1 0x4 DUP2 LT PUSH2 0x65C JUMPI INVALID JUMPDEST PUSH1 0x20 DUP2 DIV SWAP1 SWAP2 ADD SLOAD PUSH1 0xFF PUSH1 0x1F SWAP1 SWAP3 AND PUSH2 0x100 EXP SWAP1 DIV AND ISZERO PUSH2 0x6EB JUMPI DUP1 SLOAD PUSH1 0xFF NOT AND PUSH1 0x1 OR DUP1 DUP3 SSTORE DUP4 SWAP1 DUP3 SWAP1 PUSH2 0xFF00 NOT AND PUSH2 0x100 DUP4 PUSH1 0x3 DUP2 GT ISZERO PUSH2 0x69B JUMPI INVALID JUMPDEST MUL OR SWAP1 SSTORE POP PUSH32 0x52035FF46A15E119B23CFBF756F83F68EE8740523A40B78F621FDD44F091FB38 DUP5 DUP5 PUSH1 0x40 MLOAD DUP1 DUP4 DUP2 MSTORE PUSH1 0x20 ADD DUP3 PUSH1 0x3 DUP2 GT ISZERO PUSH2 0x6D9 JUMPI INVALID JUMPDEST DUP2 MSTORE PUSH1 0x20 ADD SWAP3 POP POP POP PUSH1 0x40 MLOAD DUP1 SWAP2 SUB SWAP1 LOG1 JUMPDEST POP JUMPDEST POP POP POP JUMP JUMPDEST CALLER PUSH1 0x0 SWAP1 DUP2 MSTORE PUSH1 0x6 PUSH1 0x20 SWAP1 DUP2 MSTORE PUSH1 0x40 DUP1 DUP4 KECCAK256 DUP6 DUP5 MSTORE SWAP1 SWAP2 MSTORE SWAP1 KECCAK256 SLOAD PUSH1 0xFF AND ISZERO PUSH2 0x71A JUMPI PUSH1 0x0 DUP1 REVERT JUMPDEST PUSH1 0x40 DUP1 MLOAD PUSH1 0x60 DUP2 ADD SWAP1 SWAP2 MSTORE PUSH1 0x1 DUP2 MSTORE PUSH1 0x20 DUP2 ADD PUSH1 0x0 DUP2 MSTORE PUSH1 0x20 SWAP1 DUP2 ADD DUP4 SWAP1 MSTORE CALLER PUSH1 0x0 SWAP1 DUP2 MSTORE PUSH1 0x6 DUP3 MSTORE PUSH1 0x40 DUP1 DUP3 KECCAK256 DUP7 DUP4 MSTORE DUP4 MSTORE SWAP1 KECCAK256 DUP3 MLOAD DUP2 SLOAD PUSH1 0xFF NOT AND SWAP1 ISZERO ISZERO OR DUP1 DUP3 SSTORE SWAP2 DUP4 ADD MLOAD SWAP1 SWAP2 DUP3 SWAP1 PUSH2 0xFF00 NOT AND PUSH2 0x100 DUP4 PUSH1 0x3 DUP2 GT ISZERO PUSH2 0x77A JUMPI INVALID JUMPDEST MUL OR SWAP1 SSTORE POP PUSH1 0x40 DUP3 ADD MLOAD DUP1 MLOAD PUSH2 0x79A SWAP2 PUSH1 0x1 DUP5 ADD SWAP2 PUSH1 0x20 SWAP1 SWAP2 ADD SWAP1 PUSH2 0xAF1 JUMP JUMPDEST POP POP CALLER PUSH1 0x0 SWAP1 DUP2 MSTORE PUSH1 0x7 PUSH1 0x20 SWAP1 DUP2 MSTORE PUSH1 0x40 DUP3 KECCAK256 DUP1 SLOAD PUSH1 0x1 DUP2 ADD DUP3 SSTORE SWAP1 DUP4 MSTORE SWAP2 KECCAK256 ADD SWAP3 SWAP1 SWAP3 SSTORE POP POP JUMP JUMPDEST PUSH1 0x0 DUP1 DUP4 PUSH1 0x1 PUSH1 0xA0 PUSH1 0x2 EXP SUB DUP2 AND PUSH2 0x7DA JUMPI PUSH1 0x0 DUP1 REVERT JUMPDEST POP POP POP PUSH1 0x1 PUSH1 0xA0 PUSH1 0x2 EXP SUB SWAP2 SWAP1 SWAP2 AND PUSH1 0x0 SWAP1 DUP2 MSTORE PUSH1 0x6 PUSH1 0x20 SWAP1 DUP2 MSTORE PUSH1 0x40 DUP1 DUP4 KECCAK256 SWAP4 DUP4 MSTORE SWAP3 SWAP1 MSTORE KECCAK256 SLOAD PUSH1 0xFF DUP1 DUP3 AND SWAP3 PUSH2 0x100 SWAP1 SWAP3 DIV AND SWAP1 JUMP JUMPDEST PUSH1 0x1 SLOAD DUP2 JUMP JUMPDEST PUSH1 0x2 SLOAD PUSH1 0x1 PUSH1 0xA0 PUSH1 0x2 EXP SUB AND DUP2 JUMP JUMPDEST PUSH1 0x0 DUP1 DUP4 PUSH1 0x1 PUSH1 0xA0 PUSH1 0x2 EXP SUB DUP2 AND PUSH2 0x83E JUMPI PUSH1 0x0 DUP1 REVERT JUMPDEST POP POP POP PUSH1 0x1 PUSH1 0xA0 PUSH1 0x2 EXP SUB SWAP2 SWAP1 SWAP2 AND PUSH1 0x0 SWAP1 DUP2 MSTORE PUSH1 0x8 PUSH1 0x20 SWAP1 DUP2 MSTORE PUSH1 0x40 DUP1 DUP4 KECCAK256 SWAP4 DUP4 MSTORE SWAP3 SWAP1 MSTORE KECCAK256 SLOAD PUSH1 0xFF DUP1 DUP3 AND SWAP3 PUSH2 0x100 SWAP1 SWAP3 DIV AND SWAP1 JUMP JUMPDEST PUSH1 0x1 PUSH1 0xA0 PUSH1 0x2 EXP SUB DUP2 AND PUSH1 0x0 SWAP1 DUP2 MSTORE PUSH1 0x7 PUSH1 0x20 SWAP1 DUP2 MSTORE PUSH1 0x40 DUP1 DUP4 KECCAK256 DUP1 SLOAD DUP3 MLOAD DUP2 DUP6 MUL DUP2 ADD DUP6 ADD SWAP1 SWAP4 MSTORE DUP1 DUP4 MSTORE PUSH1 0x60 SWAP4 SWAP1 SWAP3 SWAP1 DUP3 SWAP1 DUP5 SWAP1 DUP4 ADD DUP3 DUP3 DUP1 ISZERO PUSH2 0x8DB JUMPI PUSH1 0x20 MUL DUP3 ADD SWAP2 SWAP1 PUSH1 0x0 MSTORE PUSH1 0x20 PUSH1 0x0 KECCAK256 SWAP1 JUMPDEST DUP2 SLOAD DUP2 MSTORE PUSH1 0x20 ADD SWAP1 PUSH1 0x1 ADD SWAP1 DUP1 DUP4 GT PUSH2 0x8C7 JUMPI JUMPDEST POP POP POP POP POP SWAP1 POP SWAP2 POP SWAP2 POP SWAP2 POP SWAP2 JUMP JUMPDEST PUSH1 0x0 SLOAD PUSH2 0x100 SWAP1 DIV PUSH1 0xFF AND DUP1 PUSH2 0x904 JUMPI POP PUSH2 0x904 PUSH2 0xAEB JUMP JUMPDEST DUP1 PUSH2 0x912 JUMPI POP PUSH1 0x0 SLOAD PUSH1 0xFF AND ISZERO JUMPDEST PUSH2 0x967 JUMPI PUSH1 0x40 MLOAD PUSH32 0x8C379A000000000000000000000000000000000000000000000000000000000 DUP2 MSTORE PUSH1 0x4 ADD DUP1 DUP1 PUSH1 0x20 ADD DUP3 DUP2 SUB DUP3 MSTORE PUSH1 0x2E DUP2 MSTORE PUSH1 0x20 ADD DUP1 PUSH2 0xB93 PUSH1 0x2E SWAP2 CODECOPY PUSH1 0x40 ADD SWAP2 POP POP PUSH1 0x40 MLOAD DUP1 SWAP2 SUB SWAP1 REVERT JUMPDEST PUSH1 0x0 SLOAD PUSH2 0x100 SWAP1 DIV PUSH1 0xFF AND ISZERO DUP1 ISZERO PUSH2 0x992 JUMPI PUSH1 0x0 DUP1 SLOAD PUSH1 0xFF NOT PUSH2 0xFF00 NOT SWAP1 SWAP2 AND PUSH2 0x100 OR AND PUSH1 0x1 OR SWAP1 SSTORE JUMPDEST PUSH1 0x4 PUSH1 0x1 SSTORE PUSH1 0x2 DUP1 SLOAD PUSH20 0xFFFFFFFFFFFFFFFFFFFFFFFFFFFFFFFFFFFFFFFF NOT AND PUSH1 0x1 PUSH1 0xA0 PUSH1 0x2 EXP SUB DUP5 AND OR SWAP1 SSTORE DUP1 ISZERO PUSH2 0x9D1 JUMPI PUSH1 0x0 DUP1 SLOAD PUSH2 0xFF00 NOT AND SWAP1 SSTORE JUMPDEST POP POP JUMP JUMPDEST PUSH1 0x7 PUSH1 0x20 MSTORE DUP2 PUSH1 0x0 MSTORE PUSH1 0x40 PUSH1 0x0 KECCAK256 DUP2 DUP2 SLOAD DUP2 LT PUSH2 0x9F1 JUMPI PUSH1 0x0 DUP1 REVERT JUMPDEST SWAP1 PUSH1 0x0 MSTORE PUSH1 0x20 PUSH1 0x0 KECCAK256 ADD PUSH1 0x0 SWAP2 POP SWAP2 POP POP SLOAD DUP2 JUMP JUMPDEST DUP1 PUSH1 0x0 DUP2 PUSH1 0x3 DUP2 GT ISZERO PUSH2 0xA15 JUMPI INVALID JUMPDEST LT ISZERO DUP1 ISZERO PUSH2 0xA2F JUMPI POP PUSH1 0x3 DUP2 PUSH1 0x3 DUP2 GT ISZERO PUSH2 0xA2C JUMPI INVALID JUMPDEST GT ISZERO JUMPDEST PUSH2 0xA38 JUMPI PUSH1 0x0 DUP1 REVERT JUMPDEST CALLER PUSH1 0x0 SWAP1 DUP2 MSTORE PUSH1 0x6 PUSH1 0x20 SWAP1 DUP2 MSTORE PUSH1 0x40 DUP1 DUP4 KECCAK256 DUP7 DUP5 MSTORE SWAP1 SWAP2 MSTORE SWAP1 KECCAK256 DUP1 SLOAD PUSH1 0xFF AND PUSH2 0xA61 JUMPI POP PUSH2 0x6ED JUMP JUMPDEST PUSH1 0x5 SLOAD PUSH1 0xFF AND ISZERO DUP1 ISZERO PUSH2 0xA93 JUMPI POP DUP1 SLOAD PUSH2 0x100 SWAP1 DIV PUSH1 0xFF AND PUSH1 0x3 DUP2 GT ISZERO PUSH2 0xA84 JUMPI INVALID JUMPDEST DUP4 PUSH1 0x3 DUP2 GT ISZERO PUSH2 0xA90 JUMPI INVALID JUMPDEST GT ISZERO JUMPDEST ISZERO PUSH2 0xA9E JUMPI POP PUSH2 0x6ED JUMP JUMPDEST PUSH1 0x3 DUP4 PUSH1 0x3 DUP2 GT ISZERO PUSH2 0xAAC JUMPI INVALID JUMPDEST PUSH1 0x4 DUP2 LT PUSH2 0xAB6 JUMPI INVALID JUMPDEST PUSH1 0x20 DUP2 DIV SWAP1 SWAP2 ADD SLOAD PUSH1 0xFF PUSH1 0x1F SWAP1 SWAP3 AND PUSH2 0x100 EXP SWAP1 DIV AND ISZERO PUSH2 0x6EB JUMPI DUP1 SLOAD DUP4 SWAP1 DUP3 SWAP1 PUSH2 0xFF00 NOT AND PUSH2 0x100 DUP4 PUSH1 0x3 DUP2 GT ISZERO PUSH2 0x69B JUMPI INVALID JUMPDEST ADDRESS EXTCODESIZE ISZERO SWAP1 JUMP JUMPDEST DUP3 DUP1 SLOAD PUSH1 0x1 DUP2 PUSH1 0x1 AND ISZERO PUSH2 0x100 MUL SUB AND PUSH1 0x2 SWAP1 DIV SWAP1 PUSH1 0x0 MSTORE PUSH1 0x20 PUSH1 0x0 KECCAK256 SWAP1 PUSH1 0x1F ADD PUSH1 0x20 SWAP1 DIV DUP2 ADD SWAP3 DUP3 PUSH2 0xB27 JUMPI PUSH1 0x0 DUP6 SSTORE PUSH2 0xB6D JUMP JUMPDEST DUP3 PUSH1 0x1F LT PUSH2 0xB40 JUMPI DUP1 MLOAD PUSH1 0xFF NOT AND DUP4 DUP1 ADD OR DUP6 SSTORE PUSH2 0xB6D JUMP JUMPDEST DUP3 DUP1 ADD PUSH1 0x1 ADD DUP6 SSTORE DUP3 ISZERO PUSH2 0xB6D JUMPI SWAP2 DUP3 ADD JUMPDEST DUP3 DUP2 GT ISZERO PUSH2 0xB6D JUMPI DUP3 MLOAD DUP3 SSTORE SWAP2 PUSH1 0x20 ADD SWAP2 SWAP1 PUSH1 0x1 ADD SWAP1 PUSH2 0xB52 JUMP JUMPDEST POP PUSH2 0xB79 SWAP3 SWAP2 POP PUSH2 0xB7D JUMP JUMPDEST POP SWAP1 JUMP JUMPDEST JUMPDEST DUP1 DUP3 GT ISZERO PUSH2 0xB79 JUMPI PUSH1 0x0 DUP2 SSTORE PUSH1 0x1 ADD PUSH2 0xB7E JUMP INVALID 0x49 PUSH15 0x697469616C697A61626C653A20636F PUSH15 0x747261637420697320616C72656164 PUSH26 0x20696E697469616C697A6564A264697066735822122054FBC04B 0xB3 0xD8 SWAP10 0xA5 SELFDESTRUCT SWAP2 0xD7 DUP11 0x4F 0xE6 SGT 0x4B BALANCE SLOAD 0xB4 0xCB PUSH2 0x8712 0x4E SIGNEXTEND EXTCODESIZE 0xE0 PUSH10 0xAE58B58E64736F6C6343 STOP SMOD MOD STOP CALLER "
        },
        "methodIdentifiers": {
          "addSubjectPresentation(bytes32,string)": "4e3a5de5",
          "getPresentationStatus(uint8,uint8)": "034f8408",
          "getReceiverPresentationStatus(address,bytes32)": "9373014a",
          "getSubjectPresentationList(address)": "c00dcd0e",
          "getSubjectPresentationStatus(address,bytes32)": "5205080f",
          "initialize(address)": "c4d66de8",
          "previousPublishedVersion()": "6104464f",
          "subjectPresentationListRegistry(address,uint256)": "e4734593",
          "subjectPresentationRegistry(address,bytes32)": "1e54e325",
          "updateReceiverPresentation(bytes32,uint8)": "3000dc39",
          "updateSubjectPresentation(bytes32,uint8)": "e64af938",
          "version()": "54fd4d50"
        }
      }
    }
  }
}