{
  "contracts/identityManager/AlastriaIdentityIssuer.sol": {
    "AlastriaIdentityIssuer": {
      "abi": [
        {
          "inputs": [
            {
              "internalType": "address",
              "name": "_identityIssuer",
              "type": "address"
            },
            {
              "internalType": "enum Eidas.EidasLevel",
              "name": "_level",
              "type": "uint8"
            }
          ],
          "name": "addIdentityIssuer",
          "outputs": [],
          "stateMutability": "nonpayable",
          "type": "function"
        },
        {
          "inputs": [
            {
              "internalType": "address",
              "name": "_identityIssuer",
              "type": "address"
            }
          ],
          "name": "deleteIdentityIssuer",
          "outputs": [],
          "stateMutability": "nonpayable",
          "type": "function"
        },
        {
          "inputs": [
            {
              "internalType": "address",
              "name": "_identityIssuer",
              "type": "address"
            }
          ],
          "name": "getEidasLevel",
          "outputs": [
            {
              "internalType": "enum Eidas.EidasLevel",
              "name": "",
              "type": "uint8"
            }
          ],
          "stateMutability": "view",
          "type": "function"
        },
        {
          "inputs": [
            {
              "internalType": "address",
              "name": "_firstIdentity",
              "type": "address"
            }
          ],
          "name": "initialize",
          "outputs": [],
          "stateMutability": "nonpayable",
          "type": "function"
        },
        {
          "inputs": [
            {
              "internalType": "address",
              "name": "_identityIssuer",
              "type": "address"
            }
          ],
          "name": "isIdentityIssuer",
          "outputs": [
            {
              "internalType": "bool",
              "name": "",
              "type": "bool"
            }
          ],
          "stateMutability": "view",
          "type": "function"
        },
        {
          "inputs": [
            {
              "internalType": "address",
              "name": "_identityIssuer",
              "type": "address"
            },
            {
              "internalType": "enum Eidas.EidasLevel",
              "name": "_level",
              "type": "uint8"
            }
          ],
          "name": "updateIdentityIssuerEidasLevel",
          "outputs": [],
          "stateMutability": "nonpayable",
          "type": "function"
        }
      ],
      "evm": {
        "bytecode": {
          "linkReferences": {
            "contracts/libs/Eidas.sol": {
              "Eidas": [
                {
                  "length": 20,
                  "start": 484
                },
                {
                  "length": 20,
                  "start": 778
                }
              ]
            }
          },
          "object": "608060405234801561001057600080fd5b506105b1806100206000396000f3fe608060405234801561001057600080fd5b50600436106100655760e060020a60003504630e5a4fbb811461006a57806344963610146100b15780636554adf0146100e2578063889776a81461011c578063c4d66de81461014b578063cb69159914610171575b600080fd5b6100906004803603602081101561008057600080fd5b5035600160a060020a0316610197565b604051808260048111156100a057fe5b815260200191505060405180910390f35b6100e0600480360360408110156100c757600080fd5b508035600160a060020a0316906020013560ff166101b5565b005b610108600480360360208110156100f857600080fd5b5035600160a060020a03166102b8565b604080519115158252519081900360200190f35b6100e06004803603604081101561013257600080fd5b508035600160a060020a0316906020013560ff166102db565b6100e06004803603602081101561016157600080fd5b5035600160a060020a0316610418565b6100e06004803603602081101561018757600080fd5b5035600160a060020a0316610503565b600160a060020a031660009081526001602052604090205460ff1690565b808060048111156101c257fe5b73__$b5d371e22ff22cab27859fc31c8dd39ea9$__630fa78bf790916040518263ffffffff1660e060020a0281526004018082600481111561020057fe5b815260200191505060206040518083038186803b15801561022057600080fd5b505af4158015610234573d6000803e3d6000fd5b505050506040513d602081101561024a57600080fd5b505161025557600080fd5b33600081815260016020526040902054610100900460ff1661027657600080fd5b600160a060020a0384166000908152600160208190526040909120805490918591839160ff19909116908360048111156102ac57fe5b02179055505050505050565b600160a060020a0316600090815260016020526040902054610100900460ff1690565b808060048111156102e857fe5b73__$b5d371e22ff22cab27859fc31c8dd39ea9$__630fa78bf790916040518263ffffffff1660e060020a0281526004018082600481111561032657fe5b815260200191505060206040518083038186803b15801561034657600080fd5b505af415801561035a573d6000803e3d6000fd5b505050506040513d602081101561037057600080fd5b505161037b57600080fd5b600160a060020a0383166000908152600160205260409020548390610100900460ff16156103a857600080fd5b33600081815260016020526040902054610100900460ff166103c957600080fd5b600160a060020a0385166000908152600160208190526040909120805490918691839160ff19909116908360048111156103ff57fe5b0217905550805461ff0019166101001790555050505050565b600054610100900460ff16806104315750610431610547565b8061043f575060005460ff16155b610494576040517f08c379a000000000000000000000000000000000000000000000000000000000815260040180806020018281038252602e81526020018061054e602e913960400191505060405180910390fd5b600054610100900460ff161580156104bf576000805460ff1961ff0019909116610100171660011790555b600160a060020a03821660009081526001602052604090208054600460ff199091161761ff00191661010017905580156104ff576000805461ff00191690555b5050565b33600081815260016020526040902054610100900460ff1661052457600080fd5b50600160a060020a03166000908152600160205260409020805461ffff19169055565b303b159056fe496e697469616c697a61626c653a20636f6e747261637420697320616c726561647920696e697469616c697a6564a2646970667358221220e695e1da8d50c19223e0962954b9af891facea6f6240fe69cd328f049f5060c164736f6c63430007060033",
          "opcodes": "PUSH1 0x80 PUSH1 0x40 MSTORE CALLVALUE DUP1 ISZERO PUSH2 0x10 JUMPI PUSH1 0x0 DUP1 REVERT JUMPDEST POP PUSH2 0x5B1 DUP1 PUSH2 0x20 PUSH1 0x0 CODECOPY PUSH1 0x0 RETURN INVALID PUSH1 0x80 PUSH1 0x40 MSTORE CALLVALUE DUP1 ISZERO PUSH2 0x10 JUMPI PUSH1 0x0 DUP1 REVERT JUMPDEST POP PUSH1 0x4 CALLDATASIZE LT PUSH2 0x65 JUMPI PUSH1 0xE0 PUSH1 0x2 EXP PUSH1 0x0 CALLDATALOAD DIV PUSH4 0xE5A4FBB DUP2 EQ PUSH2 0x6A JUMPI DUP1 PUSH4 0x44963610 EQ PUSH2 0xB1 JUMPI DUP1 PUSH4 0x6554ADF0 EQ PUSH2 0xE2 JUMPI DUP1 PUSH4 0x889776A8 EQ PUSH2 0x11C JUMPI DUP1 PUSH4 0xC4D66DE8 EQ PUSH2 0x14B JUMPI DUP1 PUSH4 0xCB691599 EQ PUSH2 0x171 JUMPI JUMPDEST PUSH1 0x0 DUP1 REVERT JUMPDEST PUSH2 0x90 PUSH1 0x4 DUP1 CALLDATASIZE SUB PUSH1 0x20 DUP2 LT ISZERO PUSH2 0x80 JUMPI PUSH1 0x0 DUP1 REVERT JUMPDEST POP CALLDATALOAD PUSH1 0x1 PUSH1 0xA0 PUSH1 0x2 EXP SUB AND PUSH2 0x197 JUMP JUMPDEST PUSH1 0x40 MLOAD DUP1 DUP3 PUSH1 0x4 DUP2 GT ISZERO PUSH2 0xA0 JUMPI INVALID JUMPDEST DUP2 MSTORE PUSH1 0x20 ADD SWAP2 POP POP PUSH1 0x40 MLOAD DUP1 SWAP2 SUB SWAP1 RETURN JUMPDEST PUSH2 0xE0 PUSH1 0x4 DUP1 CALLDATASIZE SUB PUSH1 0x40 DUP2 LT ISZERO PUSH2 0xC7 JUMPI PUSH1 0x0 DUP1 REVERT JUMPDEST POP DUP1 CALLDATALOAD PUSH1 0x1 PUSH1 0xA0 PUSH1 0x2 EXP SUB AND SWAP1 PUSH1 0x20 ADD CALLDATALOAD PUSH1 0xFF AND PUSH2 0x1B5 JUMP JUMPDEST STOP JUMPDEST PUSH2 0x108 PUSH1 0x4 DUP1 CALLDATASIZE SUB PUSH1 0x20 DUP2 LT ISZERO PUSH2 0xF8 JUMPI PUSH1 0x0 DUP1 REVERT JUMPDEST POP CALLDATALOAD PUSH1 0x1 PUSH1 0xA0 PUSH1 0x2 EXP SUB AND PUSH2 0x2B8 JUMP JUMPDEST PUSH1 0x40 DUP1 MLOAD SWAP2 ISZERO ISZERO DUP3 MSTORE MLOAD SWAP1 DUP2 SWAP1 SUB PUSH1 0x20 ADD SWAP1 RETURN JUMPDEST PUSH2 0xE0 PUSH1 0x4 DUP1 CALLDATASIZE SUB PUSH1 0x40 DUP2 LT ISZERO PUSH2 0x132 JUMPI PUSH1 0x0 DUP1 REVERT JUMPDEST POP DUP1 CALLDATALOAD PUSH1 0x1 PUSH1 0xA0 PUSH1 0x2 EXP SUB AND SWAP1 PUSH1 0x20 ADD CALLDATALOAD PUSH1 0xFF AND PUSH2 0x2DB JUMP JUMPDEST PUSH2 0xE0 PUSH1 0x4 DUP1 CALLDATASIZE SUB PUSH1 0x20 DUP2 LT ISZERO PUSH2 0x161 JUMPI PUSH1 0x0 DUP1 REVERT JUMPDEST POP CALLDATALOAD PUSH1 0x1 PUSH1 0xA0 PUSH1 0x2 EXP SUB AND PUSH2 0x418 JUMP JUMPDEST PUSH2 0xE0 PUSH1 0x4 DUP1 CALLDATASIZE SUB PUSH1 0x20 DUP2 LT ISZERO PUSH2 0x187 JUMPI PUSH1 0x0 DUP1 REVERT JUMPDEST POP CALLDATALOAD PUSH1 0x1 PUSH1 0xA0 PUSH1 0x2 EXP SUB AND PUSH2 0x503 JUMP JUMPDEST PUSH1 0x1 PUSH1 0xA0 PUSH1 0x2 EXP SUB AND PUSH1 0x0 SWAP1 DUP2 MSTORE PUSH1 0x1 PUSH1 0x20 MSTORE PUSH1 0x40 SWAP1 KECCAK256 SLOAD PUSH1 0xFF AND SWAP1 JUMP JUMPDEST DUP1 DUP1 PUSH1 0x4 DUP2 GT ISZERO PUSH2 0x1C2 JUMPI INVALID JUMPDEST PUSH20 0x0 PUSH4 0xFA78BF7 SWAP1 SWAP2 PUSH1 0x40 MLOAD DUP3 PUSH4 0xFFFFFFFF AND PUSH1 0xE0 PUSH1 0x2 EXP MUL DUP2 MSTORE PUSH1 0x4 ADD DUP1 DUP3 PUSH1 0x4 DUP2 GT ISZERO PUSH2 0x200 JUMPI INVALID JUMPDEST DUP2 MSTORE PUSH1 0x20 ADD SWAP2 POP POP PUSH1 0x20 PUSH1 0x40 MLOAD DUP1 DUP4 SUB DUP2 DUP7 DUP1 EXTCODESIZE ISZERO DUP1 ISZERO PUSH2 0x220 JUMPI PUSH1 0x0 DUP1 REVERT JUMPDEST POP GAS DELEGATECALL ISZERO DUP1 ISZERO PUSH2 0x234 JUMPI RETURNDATASIZE PUSH1 0x0 DUP1 RETURNDATACOPY RETURNDATASIZE PUSH1 0x0 REVERT JUMPDEST POP POP POP POP PUSH1 0x40 MLOAD RETURNDATASIZE PUSH1 0x20 DUP2 LT ISZERO PUSH2 0x24A JUMPI PUSH1 0x0 DUP1 REVERT JUMPDEST POP MLOAD PUSH2 0x255 JUMPI PUSH1 0x0 DUP1 REVERT JUMPDEST CALLER PUSH1 0x0 DUP2 DUP2 MSTORE PUSH1 0x1 PUSH1 0x20 MSTORE PUSH1 0x40 SWAP1 KECCAK256 SLOAD PUSH2 0x100 SWAP1 DIV PUSH1 0xFF AND PUSH2 0x276 JUMPI PUSH1 0x0 DUP1 REVERT JUMPDEST PUSH1 0x1 PUSH1 0xA0 PUSH1 0x2 EXP SUB DUP5 AND PUSH1 0x0 SWAP1 DUP2 MSTORE PUSH1 0x1 PUSH1 0x20 DUP2 SWAP1 MSTORE PUSH1 0x40 SWAP1 SWAP2 KECCAK256 DUP1 SLOAD SWAP1 SWAP2 DUP6 SWAP2 DUP4 SWAP2 PUSH1 0xFF NOT SWAP1 SWAP2 AND SWAP1 DUP4 PUSH1 0x4 DUP2 GT ISZERO PUSH2 0x2AC JUMPI INVALID JUMPDEST MUL OR SWAP1 SSTORE POP POP POP POP POP POP JUMP JUMPDEST PUSH1 0x1 PUSH1 0xA0 PUSH1 0x2 EXP SUB AND PUSH1 0x0 SWAP1 DUP2 MSTORE PUSH1 0x1 PUSH1 0x20 MSTORE PUSH1 0x40 SWAP1 KECCAK256 SLOAD PUSH2 0x100 SWAP1 DIV PUSH1 0xFF AND SWAP1 JUMP JUMPDEST DUP1 DUP1 PUSH1 0x4 DUP2 GT ISZERO PUSH2 0x2E8 JUMPI INVALID JUMPDEST PUSH20 0x0 PUSH4 0xFA78BF7 SWAP1 SWAP2 PUSH1 0x40 MLOAD DUP3 PUSH4 0xFFFFFFFF AND PUSH1 0xE0 PUSH1 0x2 EXP MUL DUP2 MSTORE PUSH1 0x4 ADD DUP1 DUP3 PUSH1 0x4 DUP2 GT ISZERO PUSH2 0x326 JUMPI INVALID JUMPDEST DUP2 MSTORE PUSH1 0x20 ADD SWAP2 POP POP PUSH1 0x20 PUSH1 0x40 MLOAD DUP1 DUP4 SUB DUP2 DUP7 DUP1 EXTCODESIZE ISZERO DUP1 ISZERO PUSH2 0x346 JUMPI PUSH1 0x0 DUP1 REVERT JUMPDEST POP GAS DELEGATECALL ISZERO DUP1 ISZERO PUSH2 0x35A JUMPI RETURNDATASIZE PUSH1 0x0 DUP1 RETURNDATACOPY RETURNDATASIZE PUSH1 0x0 REVERT JUMPDEST POP POP POP POP PUSH1 0x40 MLOAD RETURNDATASIZE PUSH1 0x20 DUP2 LT ISZERO PUSH2 0x370 JUMPI PUSH1 0x0 DUP1 REVERT JUMPDEST POP MLOAD PUSH2 0x37B JUMPI PUSH1 0x0 DUP1 REVERT JUMPDEST PUSH1 0x1 PUSH1 0xA0 PUSH1 0x2 EXP SUB DUP4 AND PUSH1 0x0 SWAP1 DUP2 MSTORE PUSH1 0x1 PUSH1 0x20 MSTORE PUSH1 0x40 SWAP1 KECCAK256 SLOAD DUP4 SWAP1 PUSH2 0x100 SWAP1 DIV PUSH1 0xFF AND ISZERO PUSH2 0x3A8 JUMPI PUSH1 0x0 DUP1 REVERT JUMPDEST CALLER PUSH1 0x0 DUP2 DUP2 MSTORE PUSH1 0x1 PUSH1 0x20 MSTORE PUSH1 0x40 SWAP1 KECCAK256 SLOAD PUSH2 0x100 SWAP1 DIV PUSH1 0xFF AND PUSH2 0x3C9 JUMPI PUSH1 0x0 DUP1 REVERT JUMPDEST PUSH1 0x1 PUSH1 0xA0 PUSH1 0x2 EXP SUB DUP6 AND PUSH1 0x0 SWAP1 DUP2 MSTORE PUSH1 0x1 PUSH1 0x20 DUP2 SWAP1 MSTORE PUSH1 0x40 SWAP1 SWAP2 KECCAK256 DUP1 SLOAD SWAP1 SWAP2 DUP7 SWAP2 DUP4 SWAP2 PUSH1 0xFF NOT SWAP1 SWAP2 AND SWAP1 DUP4 PUSH1 0x4 DUP2 GT ISZERO PUSH2 0x3FF JUMPI INVALID JUMPDEST MUL OR SWAP1 SSTORE POP DUP1 SLOAD PUSH2 0xFF00 NOT AND PUSH2 0x100 OR SWAP1 SSTORE POP POP POP POP POP JUMP JUMPDEST PUSH1 0x0 SLOAD PUSH2 0x100 SWAP1 DIV PUSH1 0xFF AND DUP1 PUSH2 0x431 JUMPI POP PUSH2 0x431 PUSH2 0x547 JUMP JUMPDEST DUP1 PUSH2 0x43F JUMPI POP PUSH1 0x0 SLOAD PUSH1 0xFF AND ISZERO JUMPDEST PUSH2 0x494 JUMPI PUSH1 0x40 MLOAD PUSH32 0x8C379A000000000000000000000000000000000000000000000000000000000 DUP2 MSTORE PUSH1 0x4 ADD DUP1 DUP1 PUSH1 0x20 ADD DUP3 DUP2 SUB DUP3 MSTORE PUSH1 0x2E DUP2 MSTORE PUSH1 0x20 ADD DUP1 PUSH2 0x54E PUSH1 0x2E SWAP2 CODECOPY PUSH1 0x40 ADD SWAP2 POP POP PUSH1 0x40 MLOAD DUP1 SWAP2 SUB SWAP1 REVERT JUMPDEST PUSH1 0x0 SLOAD PUSH2 0x100 SWAP1 DIV PUSH1 0xFF AND ISZERO DUP1 ISZERO PUSH2 0x4BF JUMPI PUSH1 0x0 DUP1 SLOAD PUSH1 0xFF NOT PUSH2 0xFF00 NOT SWAP1 SWAP2 AND PUSH2 0x100 OR AND PUSH1 0x1 OR SWAP1 SSTORE JUMPDEST PUSH1 0x1 PUSH1 0xA0 PUSH1 0x2 EXP SUB DUP3 AND PUSH1 0x0 SWAP1 DUP2 MSTORE PUSH1 0x1 PUSH1 0x20 MSTORE PUSH1 0x40 SWAP1 KECCAK256 DUP1 SLOAD PUSH1 0x4 PUSH1 0xFF NOT SWAP1 SWAP2 AND OR PUSH2 0xFF00 NOT AND PUSH2 0x100 OR SWAP1 SSTORE DUP1 ISZERO PUSH2 0x4FF JUMPI PUSH1 0x0 DUP1 SLOAD PUSH2 0xFF00 NOT AND SWAP1 SSTORE JUMPDEST POP POP JUMP JUMPDEST CALLER PUSH1 0x0 DUP2 DUP2 MSTORE PUSH1 0x1 PUSH1 0x20 MSTORE PUSH1 0x40 SWAP1 KECCAK256 SLOAD PUSH2 0x100 SWAP1 DIV PUSH1 0xFF AND PUSH2 0x524 JUMPI PUSH1 0x0 DUP1 REVERT JUMPDEST POP PUSH1 0x1 PUSH1 0xA0 PUSH1 0x2 EXP SUB AND PUSH1 0x0 SWAP1 DUP2 MSTORE PUSH1 0x1 PUSH1 0x20 MSTORE PUSH1 0x40 SWAP1 KECCAK256 DUP1 SLOAD PUSH2 0xFFFF NOT AND SWAP1 SSTORE JUMP JUMPDEST ADDRESS EXTCODESIZE ISZERO SWAP1 JUMP INVALID 0x49 PUSH15 0x697469616C697A61626C653A20636F PUSH15 0x747261637420697320616C72656164 PUSH26 0x20696E697469616C697A6564A2646970667358221220E695E1DA DUP14 POP 0xC1 SWAP3 0x23 0xE0 SWAP7 0x29 SLOAD 0xB9 0xAF DUP10 0x1F 0xAC 0xEA PUSH16 0x6240FE69CD328F049F5060C164736F6C PUSH4 0x43000706 STOP CALLER "
        },
        "methodIdentifiers": {
          "addIdentityIssuer(address,uint8)": "889776a8",
          "deleteIdentityIssuer(address)": "cb691599",
          "getEidasLevel(address)": "0e5a4fbb",
          "initialize(address)": "c4d66de8",
          "isIdentityIssuer(address)": "6554adf0",
          "updateIdentityIssuerEidasLevel(address,uint8)": "44963610"
        }
      }
    }
  }
}