{
  "contracts/identityManager/AlastriaIdentityServiceProvider.sol": {
    "AlastriaIdentityServiceProvider": {
      "abi": [
        {
          "inputs": [
            {
              "internalType": "address",
              "name": "_identityServiceProvider",
              "type": "address"
            }
          ],
          "name": "addIdentityServiceProvider",
          "outputs": [],
          "stateMutability": "nonpayable",
          "type": "function"
        },
        {
          "inputs": [
            {
              "internalType": "address",
              "name": "_identityServiceProvider",
              "type": "address"
            }
          ],
          "name": "deleteIdentityServiceProvider",
          "outputs": [],
          "stateMutability": "nonpayable",
          "type": "function"
        },
        {
          "inputs": [
            {
              "internalType": "address",
              "name": "_firstIdentity",
              "type": "address"
            }
          ],
          "name": "initialize",
          "outputs": [],
          "stateMutability": "nonpayable",
          "type": "function"
        },
        {
          "inputs": [
            {
              "internalType": "address",
              "name": "_identityServiceProvider",
              "type": "address"
            }
          ],
          "name": "isIdentityServiceProvider",
          "outputs": [
            {
              "internalType": "bool",
              "name": "",
              "type": "bool"
            }
          ],
          "stateMutability": "view",
          "type": "function"
        }
      ],
      "evm": {
        "bytecode": {
          "linkReferences": {},
          "object": "608060405234801561001057600080fd5b5061031f806100206000396000f3fe608060405234801561001057600080fd5b5060043610610068577c010000000000000000000000000000000000000000000000000000000060003504630ebbbffc811461006d5780633bf4721514610095578063c4d66de8146100bb578063d024d9a4146100e1575b600080fd5b6100936004803603602081101561008357600080fd5b5035600160a060020a031661011b565b005b610093600480360360208110156100ab57600080fd5b5035600160a060020a031661016b565b610093600480360360208110156100d157600080fd5b5035600160a060020a03166101b4565b610107600480360360208110156100f757600080fd5b5035600160a060020a0316610297565b604080519115158252519081900360200190f35b3361012581610297565b61012e57600080fd5b8161013881610297565b1561014257600080fd5b5050600160a060020a03166000908152600160208190526040909120805460ff19169091179055565b8061017581610297565b61017e57600080fd5b3361018881610297565b61019157600080fd5b5050600160a060020a03166000908152600160205260409020805460ff19169055565b600054610100900460ff16806101cd57506101cd6102b5565b806101db575060005460ff16155b610230576040517f08c379a000000000000000000000000000000000000000000000000000000000815260040180806020018281038252602e8152602001806102bc602e913960400191505060405180910390fd5b600054610100900460ff1615801561025b576000805460ff1961ff0019909116610100171660011790555b600160a060020a0382166000908152600160208190526040909120805460ff191690911790558015610293576000805461ff00191690555b5050565b600160a060020a031660009081526001602052604090205460ff1690565b303b159056fe496e697469616c697a61626c653a20636f6e747261637420697320616c726561647920696e697469616c697a6564a26469706673582212200ab6baba1954c62fedf4acf10cc72413c67163f4b4143b2a1bcdcd3467ce4c1564736f6c63430007060033",
          "opcodes": "PUSH1 0x80 PUSH1 0x40 MSTORE CALLVALUE DUP1 ISZERO PUSH2 0x10 JUMPI PUSH1 0x0 DUP1 REVERT JUMPDEST POP PUSH2 0x31F DUP1 PUSH2 0x20 PUSH1 0x0 CODECOPY PUSH1 0x0 RETURN INVALID PUSH1 0x80 PUSH1 0x40 MSTORE CALLVALUE DUP1 ISZERO PUSH2 0x10 JUMPI PUSH1 0x0 DUP1 REVERT JUMPDEST POP PUSH1 0x4 CALLDATASIZE LT PUSH2 0x68 JUMPI PUSH29 0x100000000000000000000000000000000000000000000000000000000 PUSH1 0x0 CALLDATALOAD DIV PUSH4 0xEBBBFFC DUP2 EQ PUSH2 0x6D JUMPI DUP1 PUSH4 0x3BF47215 EQ PUSH2 0x95 JUMPI DUP1 PUSH4 0xC4D66DE8 EQ PUSH2 0xBB JUMPI DUP1 PUSH4 0xD024D9A4 EQ PUSH2 0xE1 JUMPI JUMPDEST PUSH1 0x0 DUP1 REVERT JUMPDEST PUSH2 0x93 PUSH1 0x4 DUP1 CALLDATASIZE SUB PUSH1 0x20 DUP2 LT ISZERO PUSH2 0x83 JUMPI PUSH1 0x0 DUP1 REVERT JUMPDEST POP CALLDATALOAD PUSH1 0x1 PUSH1 0xA0 PUSH1 0x2 EXP SUB AND PUSH2 0x11B JUMP JUMPDEST STOP JUMPDEST PUSH2 0x93 PUSH1 0x4 DUP1 CALLDATASIZE SUB PUSH1 0x20 DUP2 LT ISZERO PUSH2 0xAB JUMPI PUSH1 0x0 DUP1 REVERT JUMPDEST POP CALLDATALOAD PUSH1 0x1 PUSH1 0xA0 PUSH1 0x2 EXP SUB AND PUSH2 0x16B JUMP JUMPDEST PUSH2 0x93 PUSH1 0x4 DUP1 CALLDATASIZE SUB PUSH1 0x20 DUP2 LT ISZERO PUSH2 0xD1 JUMPI PUSH1 0x0 DUP1 REVERT JUMPDEST POP CALLDATALOAD PUSH1 0x1 PUSH1 0xA0 PUSH1 0x2 EXP SUB AND PUSH2 0x1B4 JUMP JUMPDEST PUSH2 0x107 PUSH1 0x4 DUP1 CALLDATASIZE SUB PUSH1 0x20 DUP2 LT ISZERO PUSH2 0xF7 JUMPI PUSH1 0x0 DUP1 REVERT JUMPDEST POP CALLDATALOAD PUSH1 0x1 PUSH1 0xA0 PUSH1 0x2 EXP SUB AND PUSH2 0x297 JUMP JUMPDEST PUSH1 0x40 DUP1 MLOAD SWAP2 ISZERO ISZERO DUP3 MSTORE MLOAD SWAP1 DUP2 SWAP1 SUB PUSH1 0x20 ADD SWAP1 RETURN JUMPDEST CALLER PUSH2 0x125 DUP2 PUSH2 0x297 JUMP JUMPDEST PUSH2 0x12E JUMPI PUSH1 0x0 DUP1 REVERT JUMPDEST DUP2 PUSH2 0x138 DUP2 PUSH2 0x297 JUMP JUMPDEST ISZERO PUSH2 0x142 JUMPI PUSH1 0x0 DUP1 REVERT JUMPDEST POP POP PUSH1 0x1 PUSH1 0xA0 PUSH1 0x2 EXP SUB AND PUSH1 0x0 SWAP1 DUP2 MSTORE PUSH1 0x1 PUSH1 0x20 DUP2 SWAP1 MSTORE PUSH1 0x40 SWAP1 SWAP2 KECCAK256 DUP1 SLOAD PUSH1 0xFF NOT AND SWAP1 SWAP2 OR SWAP1 SSTORE JUMP JUMPDEST DUP1 PUSH2 0x175 DUP2 PUSH2 0x297 JUMP JUMPDEST PUSH2 0x17E JUMPI PUSH1 0x0 DUP1 REVERT JUMPDEST CALLER PUSH2 0x188 DUP2 PUSH2 0x297 JUMP JUMPDEST PUSH2 0x191 JUMPI PUSH1 0x0 DUP1 REVERT JUMPDEST POP POP PUSH1 0x1 PUSH1 0xA0 PUSH1 0x2 EXP SUB AND PUSH1 0x0 SWAP1 DUP2 MSTORE PUSH1 0x1 PUSH1 0x20 MSTORE PUSH1 0x40 SWAP1 KECCAK256 DUP1 SLOAD PUSH1 0xFF NOT AND SWAP1 SSTORE JUMP JUMPDEST PUSH1 0x0 SLOAD PUSH2 0x100 SWAP1 DIV PUSH1 0xFF AND DUP1 PUSH2 0x1CD JUMPI POP PUSH2 0x1CD PUSH2 0x2B5 JUMP JUMPDEST DUP1 PUSH2 0x1DB JUMPI POP PUSH1 0x0 SLOAD PUSH1 0xFF AND ISZERO JUMPDEST PUSH2 0x230 JUMPI PUSH1 0x40 MLOAD PUSH32 0x8C379A000000000000000000000000000000000000000000000000000000000 DUP2 MSTORE PUSH1 0x4 ADD DUP1 DUP1 PUSH1 0x20 ADD DUP3 DUP2 SUB DUP3 MSTORE PUSH1 0x2E DUP2 MSTORE PUSH1 0x20 ADD DUP1 PUSH2 0x2BC PUSH1 0x2E SWAP2 CODECOPY PUSH1 0x40 ADD SWAP2 POP POP PUSH1 0x40 MLOAD DUP1 SWAP2 SUB SWAP1 REVERT JUMPDEST PUSH1 0x0 SLOAD PUSH2 0x100 SWAP1 DIV PUSH1 0xFF AND ISZERO DUP1 ISZERO PUSH2 0x25B JUMPI PUSH1 0x0 DUP1 SLOAD PUSH1 0xFF NOT PUSH2 0xFF00 NOT SWAP1 SWAP2 AND PUSH2 0x100 OR AND PUSH1 0x1 OR SWAP1 SSTORE JUMPDEST PUSH1 0x1 PUSH1 0xA0 PUSH1 0x2 EXP SUB DUP3 AND PUSH1 0x0 SWAP1 DUP2 MSTORE PUSH1 0x1 PUSH1 0x20 DUP2 SWAP1 MSTORE PUSH1 0x40 SWAP1 SWAP2 KECCAK256 DUP1 SLOAD PUSH1 0xFF NOT AND SWAP1 SWAP2 OR SWAP1 SSTORE DUP1 ISZERO PUSH2 0x293 JUMPI PUSH1 0x0 DUP1 SLOAD PUSH2 0xFF00 NOT AND SWAP1 SSTORE JUMPDEST POP POP JUMP JUMPDEST PUSH1 0x1 PUSH1 0xA0 PUSH1 0x2 EXP SUB AND PUSH1 0x0 SWAP1 DUP2 MSTORE PUSH1 0x1 PUSH1 0x20 MSTORE PUSH1 0x40 SWAP1 KECCAK256 SLOAD PUSH1 0xFF AND SWAP1 JUMP JUMPDEST ADDRESS EXTCODESIZE ISZERO SWAP1 JUMP INVALID 0x49 PUSH15 0x697469616C697A61626C653A20636F PUSH15 0x747261637420697320616C72656164 PUSH26 0x20696E697469616C697A6564A26469706673582212200AB6BABA NOT SLOAD 0xC6 0x2F 0xED DELEGATECALL 0xAC CALL 0xC 0xC7 0x24 SGT 0xC6 PUSH18 0x63F4B4143B2A1BCDCD3467CE4C1564736F6C PUSH4 0x43000706 STOP CALLER "
        },
        "methodIdentifiers": {
          "addIdentityServiceProvider(address)": "0ebbbffc",
          "deleteIdentityServiceProvider(address)": "3bf47215",
          "initialize(address)": "c4d66de8",
          "isIdentityServiceProvider(address)": "d024d9a4"
        }
      }
    }
  }
}