{
  "contracts/registry/AlastriaCredentialRegistry.sol": {
    "AlastriaCredentialRegistry": {
      "abi": [
        {
          "anonymous": false,
          "inputs": [
            {
              "indexed": false,
              "internalType": "bytes32",
              "name": "issuerCredentialHash",
              "type": "bytes32"
            },
            {
              "indexed": false,
              "internalType": "enum AlastriaCredentialRegistry.Status",
              "name": "status",
              "type": "uint8"
            }
          ],
          "name": "IssuerCredentialRevoked",
          "type": "event"
        },
        {
          "anonymous": false,
          "inputs": [
            {
              "indexed": false,
              "internalType": "bytes32",
              "name": "subjectCredentialHash",
              "type": "bytes32"
            }
          ],
          "name": "SubjectCredentialDeleted",
          "type": "event"
        },
        {
          "inputs": [
            {
              "internalType": "bytes32",
              "name": "issuerCredentialHash",
              "type": "bytes32"
            }
          ],
          "name": "addIssuerCredential",
          "outputs": [],
          "stateMutability": "nonpayable",
          "type": "function"
        },
        {
          "inputs": [
            {
              "internalType": "bytes32",
              "name": "subjectCredentialHash",
              "type": "bytes32"
            },
            {
              "internalType": "string",
              "name": "URI",
              "type": "string"
            }
          ],
          "name": "addSubjectCredential",
          "outputs": [],
          "stateMutability": "nonpayable",
          "type": "function"
        },
        {
          "inputs": [
            {
              "internalType": "bytes32",
              "name": "subjectCredentialHash",
              "type": "bytes32"
            }
          ],
          "name": "deleteSubjectCredential",
          "outputs": [],
          "stateMutability": "nonpayable",
          "type": "function"
        },
        {
          "inputs": [
            {
              "internalType": "enum AlastriaCredentialRegistry.Status",
              "name": "subjectStatus",
              "type": "uint8"
            },
            {
              "internalType": "enum AlastriaCredentialRegistry.Status",
              "name": "issuerStatus",
              "type": "uint8"
            }
          ],
          "name": "getCredentialStatus",
          "outputs": [
            {
              "internalType": "enum AlastriaCredentialRegistry.Status",
              "name": "",
              "type": "uint8"
            }
          ],
          "stateMutability": "pure",
          "type": "function"
        },
        {
          "inputs": [
            {
              "internalType": "address",
              "name": "issuer",
              "type": "address"
            },
            {
              "internalType": "bytes32",
              "name": "issuerCredentialHash",
              "type": "bytes32"
            }
          ],
          "name": "getIssuerCredentialStatus",
          "outputs": [
            {
              "internalType": "bool",
              "name": "exists",
              "type": "bool"
            },
            {
              "internalType": "enum AlastriaCredentialRegistry.Status",
              "name": "status",
              "type": "uint8"
            }
          ],
          "stateMutability": "view",
          "type": "function"
        },
        {
          "inputs": [
            {
              "internalType": "address",
              "name": "subject",
              "type": "address"
            }
          ],
          "name": "getSubjectCredentialList",
          "outputs": [
            {
              "internalType": "uint256",
              "name": "",
              "type": "uint256"
            },
            {
              "internalType": "bytes32[]",
              "name": "",
              "type": "bytes32[]"
            }
          ],
          "stateMutability": "view",
          "type": "function"
        },
        {
          "inputs": [
            {
              "internalType": "address",
              "name": "subject",
              "type": "address"
            },
            {
              "internalType": "bytes32",
              "name": "subjectCredentialHash",
              "type": "bytes32"
            }
          ],
          "name": "getSubjectCredentialStatus",
          "outputs": [
            {
              "internalType": "bool",
              "name": "exists",
              "type": "bool"
            },
            {
              "internalType": "enum AlastriaCredentialRegistry.Status",
              "name": "status",
              "type": "uint8"
            }
          ],
          "stateMutability": "view",
          "type": "function"
        },
        {
          "inputs": [
            {
              "internalType": "address",
              "name": "_previousPublishedVersion",
              "type": "address"
            }
          ],
          "name": "initialize",
          "outputs": [],
          "stateMutability": "nonpayable",
          "type": "function"
        },
        {
          "inputs": [
            {
              "internalType": "address",
              "name": "",
              "type": "address"
            },
            {
              "internalType": "uint256",
              "name": "",
              "type": "uint256"
            }
          ],
          "name": "issuerCredentialList",
          "outputs": [
            {
              "internalType": "bytes32",
              "name": "",
              "type": "bytes32"
            }
          ],
          "stateMutability": "view",
          "type": "function"
        },
        {
          "inputs": [],
          "name": "previousPublishedVersion",
          "outputs": [
            {
              "internalType": "address",
              "name": "",
              "type": "address"
            }
          ],
          "stateMutability": "view",
          "type": "function"
        },
        {
          "inputs": [
            {
              "internalType": "address",
              "name": "",
              "type": "address"
            },
            {
              "internalType": "uint256",
              "name": "",
              "type": "uint256"
            }
          ],
          "name": "subjectCredentialList",
          "outputs": [
            {
              "internalType": "bytes32",
              "name": "",
              "type": "bytes32"
            }
          ],
          "stateMutability": "view",
          "type": "function"
        },
        {
          "inputs": [
            {
              "internalType": "address",
              "name": "",
              "type": "address"
            },
            {
              "internalType": "bytes32",
              "name": "",
              "type": "bytes32"
            }
          ],
          "name": "subjectCredentialRegistry",
          "outputs": [
            {
              "internalType": "bool",
              "name": "exists",
              "type": "bool"
            },
            {
              "internalType": "enum AlastriaCredentialRegistry.Status",
              "name": "status",
              "type": "uint8"
            },
            {
              "internalType": "string",
              "name": "URI",
              "type": "string"
            }
          ],
          "stateMutability": "view",
          "type": "function"
        },
        {
          "inputs": [
            {
              "internalType": "bytes32",
              "name": "issuerCredentialHash",
              "type": "bytes32"
            },
            {
              "internalType": "enum AlastriaCredentialRegistry.Status",
              "name": "status",
              "type": "uint8"
            }
          ],
          "name": "updateCredentialStatus",
          "outputs": [],
          "stateMutability": "nonpayable",
          "type": "function"
        },
        {
          "inputs": [],
          "name": "version",
          "outputs": [
            {
              "internalType": "int256",
              "name": "",
              "type": "int256"
            }
          ],
          "stateMutability": "view",
          "type": "function"
        }
      ],
      "evm": {
        "bytecode": {
          "linkReferences": {},
          "object": "608060405234801561001057600080fd5b50610ca0806100206000396000f3fe608060405234801561001057600080fd5b50600436106100e7576000357c010000000000000000000000000000000000000000000000000000000090048063aeda232a11610099578063aeda232a14610335578063c43f6b3614610361578063c4d66de81461038d578063dc11e39b146103b5578063dd517e10146103d2578063dff9a1a9146103f8578063e04ce02c14610415576100e7565b806341e61ff8146100ec5780634510b1cb1461012a57806354fd4d50146101ab57806355d64732146101b35780635faf7d94146102095780636104464f146102525780636792223d14610276575b600080fd5b6101186004803603604081101561010257600080fd5b50600160a060020a0381351690602001356104c2565b60408051918252519081900360200190f35b6101506004803603602081101561014057600080fd5b5035600160a060020a03166104f3565b6040518083815260200180602001828103825283818151815260200191508051906020019060200280838360005b8381101561019657818101518382015260200161017e565b50505050905001935050505060405180910390f35b610118610568565b6101df600480360360408110156101c957600080fd5b50600160a060020a03813516906020013561056e565b6040518083151581526020018260038111156101f757fe5b81526020019250505060405180910390f35b6102316004803603604081101561021f57600080fd5b5060ff813581169160200135166105bd565b6040518082600381111561024157fe5b815260200191505060405180910390f35b61025a610653565b60408051600160a060020a039092168252519081900360200190f35b6102a26004803603604081101561028c57600080fd5b50600160a060020a038135169060200135610662565b6040518084151581526020018360038111156102ba57fe5b815260200180602001828103825283818151815260200191508051906020019080838360005b838110156102f85781810151838201526020016102e0565b50505050905090810190601f1680156103255780820380516001836020036101000a031916815260200191505b5094505050505060405180910390f35b6101df6004803603604081101561034b57600080fd5b50600160a060020a03813516906020013561071b565b6101186004803603604081101561037757600080fd5b50600160a060020a03813516906020013561076a565b6103b3600480360360208110156103a357600080fd5b5035600160a060020a0316610786565b005b6103b3600480360360208110156103cb57600080fd5b5035610870565b6103b3600480360360408110156103e857600080fd5b508035906020013560ff1661091f565b6103b36004803603602081101561040e57600080fd5b5035610a36565b6103b36004803603604081101561042b57600080fd5b8135919081019060408101602082013564010000000081111561044d57600080fd5b82018360208201111561045f57600080fd5b8035906020019184600183028401116401000000008311171561048157600080fd5b91908080601f016020809104026020016040519081016040528093929190818152602001838380828437600092019190915250929550610abf945050505050565b600660205281600052604060002081815481106104de57600080fd5b90600052602060002001600091509150505481565b600160a060020a038116600090815260046020908152604080832080548251818502810185019093528083526060939092908290849083018282801561055857602002820191906000526020600020905b815481526020019060010190808311610544575b5050505050905091509150915091565b60015481565b60008083600160a060020a03811661058557600080fd5b505050600160a060020a03919091166000908152600360209081526040808320938352929052205460ff808216926101009092041690565b600082818160038111156105cd57fe5b101580156105e7575060038160038111156105e457fe5b11155b6105f057600080fd5b8260008160038111156105ff57fe5b101580156106195750600381600381111561061657fe5b11155b61062257600080fd5b83600381111561062e57fe5b85600381111561063a57fe5b106106475784925061064b565b8392505b505092915050565b600254600160a060020a031681565b6003602090815260009283526040808420825291835291819020805460018083018054855160026101009483161585026000190190921691909104601f810188900488028201880190965285815260ff80851697939094049093169490918301828280156107115780601f106106e657610100808354040283529160200191610711565b820191906000526020600020905b8154815290600101906020018083116106f457829003601f168201915b5050505050905083565b60008083600160a060020a03811661073257600080fd5b505050600160a060020a03919091166000908152600560209081526040808320938352929052205460ff808216926101009092041690565b600460205281600052604060002081815481106104de57600080fd5b600054610100900460ff168061079f575061079f610b95565b806107ad575060005460ff16155b610802576040517f08c379a000000000000000000000000000000000000000000000000000000000815260040180806020018281038252602e815260200180610c3d602e913960400191505060405180910390fd5b600054610100900460ff1615801561082d576000805460ff1961ff0019909116610100171660011790555b60036001556002805473ffffffffffffffffffffffffffffffffffffffff1916600160a060020a038416179055801561086c576000805461ff00191690555b5050565b33600090815260056020908152604080832084845290915290205460ff161561089857600080fd5b6040805180820190915260018152602081016000905233600090815260056020908152604080832085845282529091208251815460ff191690151517808255918301519091829061ff0019166101008360038111156108f357fe5b021790555050336000908152600660209081526040822080546001810182559083529120019190915550565b80600081600381111561092e57fe5b101580156109485750600381600381111561094557fe5b11155b61095157600080fd5b33600090815260056020908152604080832086845290915290208054610100900460ff16600381111561098057fe5b83600381111561098c57fe5b1115610a305760018360038111156109a057fe5b14806109b7575060028360038111156109b557fe5b145b15610a3057805460ff19166001178082558390829061ff0019166101008360038111156109e057fe5b02179055507f0bc6eed115cb12ced57d22ce88a4be72a3b052cf01e5a1947a1f901f8ff26b1a848460405180838152602001826003811115610a1e57fe5b81526020019250505060405180910390a15b50505050565b3360009081526003602090815260408083208484529091529020805460ff168015610a76575060038154610100900460ff166003811115610a7357fe5b14155b1561086c57805461ff0019166103001781556040805183815290517fc83f14fb22d6787113e4b492b1b27daac6284e516a3c61d454359fd426d04c299181900360200190a15050565b33600090815260036020908152604080832085845290915290205460ff1615610ae757600080fd5b604080516060810190915260018152602081016000815260209081018390523360009081526003808352604080832087845284529091208351815460ff1916901515178082559284015190929091839161ff00191690610100908490811115610b4c57fe5b021790555060408201518051610b6c916001840191602090910190610b9b565b505033600090815260046020908152604082208054600181018255908352912001929092555050565b303b1590565b828054600181600116156101000203166002900490600052602060002090601f016020900481019282610bd15760008555610c17565b82601f10610bea57805160ff1916838001178555610c17565b82800160010185558215610c17579182015b82811115610c17578251825591602001919060010190610bfc565b50610c23929150610c27565b5090565b5b80821115610c235760008155600101610c2856fe496e697469616c697a61626c653a20636f6e747261637420697320616c726561647920696e697469616c697a6564a264697066735822122012c31b9a368dea1e49c3d20fdccb7d3e2206b097ddb05172694dc291d05aac5f64736f6c63430007060033",
          "opcodes": "PUSH1 0x80 PUSH1 0x40 MSTORE CALLVALUE DUP1 ISZERO PUSH2 0x10 JUMPI PUSH1 0x0 DUP1 REVERT JUMPDEST POP PUSH2 0xCA0 DUP1 PUSH2 0x20 PUSH1 0x0 CODECOPY PUSH1 0x0 RETURN INVALID PUSH1 0x80 PUSH1 0x40 MSTORE CALLVALUE DUP1 ISZERO PUSH2 0x10 JUMPI PUSH1 0x0 DUP1 REVERT JUMPDEST POP PUSH1 0x4 CALLDATASIZE LT PUSH2 0xE7 JUMPI PUSH1 0x0 CALLDATALOAD PUSH29 0x100000000000000000000000000000000000000000000000000000000 SWAP1 DIV DUP1 PUSH4 0xAEDA232A GT PUSH2 0x99 JUMPI DUP1 PUSH4 0xAEDA232A EQ PUSH2 0x335 JUMPI DUP1 PUSH4 0xC43F6B36 EQ PUSH2 0x361 JUMPI DUP1 PUSH4 0xC4D66DE8 EQ PUSH2 0x38D JUMPI DUP1 PUSH4 0xDC11E39B EQ PUSH2 0x3B5 JUMPI DUP1 PUSH4 0xDD517E10 EQ PUSH2 0x3D2 JUMPI DUP1 PUSH4 0xDFF9A1A9 EQ PUSH2 0x3F8 JUMPI DUP1 PUSH4 0xE04CE02C EQ PUSH2 0x415 JUMPI PUSH2 0xE7 JUMP JUMPDEST DUP1 PUSH4 0x41E61FF8 EQ PUSH2 0xEC JUMPI DUP1 PUSH4 0x4510B1CB EQ PUSH2 0x12A JUMPI DUP1 PUSH4 0x54FD4D50 EQ PUSH2 0x1AB JUMPI DUP1 PUSH4 0x55D64732 EQ PUSH2 0x1B3 JUMPI DUP1 PUSH4 0x5FAF7D94 EQ PUSH2 0x209 JUMPI DUP1 PUSH4 0x6104464F EQ PUSH2 0x252 JUMPI DUP1 PUSH4 0x6792223D EQ PUSH2 0x276 JUMPI JUMPDEST PUSH1 0x0 DUP1 REVERT JUMPDEST PUSH2 0x118 PUSH1 0x4 DUP1 CALLDATASIZE SUB PUSH1 0x40 DUP2 LT ISZERO PUSH2 0x102 JUMPI PUSH1 0x0 DUP1 REVERT JUMPDEST POP PUSH1 0x1 PUSH1 0xA0 PUSH1 0x2 EXP SUB DUP2 CALLDATALOAD AND SWAP1 PUSH1 0x20 ADD CALLDATALOAD PUSH2 0x4C2 JUMP JUMPDEST PUSH1 0x40 DUP1 MLOAD SWAP2 DUP3 MSTORE MLOAD SWAP1 DUP2 SWAP1 SUB PUSH1 0x20 ADD SWAP1 RETURN JUMPDEST PUSH2 0x150 PUSH1 0x4 DUP1 CALLDATASIZE SUB PUSH1 0x20 DUP2 LT ISZERO PUSH2 0x140 JUMPI PUSH1 0x0 DUP1 REVERT JUMPDEST POP CALLDATALOAD PUSH1 0x1 PUSH1 0xA0 PUSH1 0x2 EXP SUB AND PUSH2 0x4F3 JUMP JUMPDEST PUSH1 0x40 MLOAD DUP1 DUP4 DUP2 MSTORE PUSH1 0x20 ADD DUP1 PUSH1 0x20 ADD DUP3 DUP2 SUB DUP3 MSTORE DUP4 DUP2 DUP2 MLOAD DUP2 MSTORE PUSH1 0x20 ADD SWAP2 POP DUP1 MLOAD SWAP1 PUSH1 0x20 ADD SWAP1 PUSH1 0x20 MUL DUP1 DUP4 DUP4 PUSH1 0x0 JUMPDEST DUP4 DUP2 LT ISZERO PUSH2 0x196 JUMPI DUP2 DUP2 ADD MLOAD DUP4 DUP3 ADD MSTORE PUSH1 0x20 ADD PUSH2 0x17E JUMP JUMPDEST POP POP POP POP SWAP1 POP ADD SWAP4 POP POP POP POP PUSH1 0x40 MLOAD DUP1 SWAP2 SUB SWAP1 RETURN JUMPDEST PUSH2 0x118 PUSH2 0x568 JUMP JUMPDEST PUSH2 0x1DF PUSH1 0x4 DUP1 CALLDATASIZE SUB PUSH1 0x40 DUP2 LT ISZERO PUSH2 0x1C9 JUMPI PUSH1 0x0 DUP1 REVERT JUMPDEST POP PUSH1 0x1 PUSH1 0xA0 PUSH1 0x2 EXP SUB DUP2 CALLDATALOAD AND SWAP1 PUSH1 0x20 ADD CALLDATALOAD PUSH2 0x56E JUMP JUMPDEST PUSH1 0x40 MLOAD DUP1 DUP4 ISZERO ISZERO DUP2 MSTORE PUSH1 0x20 ADD DUP3 PUSH1 0x3 DUP2 GT ISZERO PUSH2 0x1F7 JUMPI INVALID JUMPDEST DUP2 MSTORE PUSH1 0x20 ADD SWAP3 POP POP POP PUSH1 0x40 MLOAD DUP1 SWAP2 SUB SWAP1 RETURN JUMPDEST PUSH2 0x231 PUSH1 0x4 DUP1 CALLDATASIZE SUB PUSH1 0x40 DUP2 LT ISZERO PUSH2 0x21F JUMPI PUSH1 0x0 DUP1 REVERT JUMPDEST POP PUSH1 0xFF DUP2 CALLDATALOAD DUP2 AND SWAP2 PUSH1 0x20 ADD CALLDATALOAD AND PUSH2 0x5BD JUMP JUMPDEST PUSH1 0x40 MLOAD DUP1 DUP3 PUSH1 0x3 DUP2 GT ISZERO PUSH2 0x241 JUMPI INVALID JUMPDEST DUP2 MSTORE PUSH1 0x20 ADD SWAP2 POP POP PUSH1 0x40 MLOAD DUP1 SWAP2 SUB SWAP1 RETURN JUMPDEST PUSH2 0x25A PUSH2 0x653 JUMP JUMPDEST PUSH1 0x40 DUP1 MLOAD PUSH1 0x1 PUSH1 0xA0 PUSH1 0x2 EXP SUB SWAP1 SWAP3 AND DUP3 MSTORE MLOAD SWAP1 DUP2 SWAP1 SUB PUSH1 0x20 ADD SWAP1 RETURN JUMPDEST PUSH2 0x2A2 PUSH1 0x4 DUP1 CALLDATASIZE SUB PUSH1 0x40 DUP2 LT ISZERO PUSH2 0x28C JUMPI PUSH1 0x0 DUP1 REVERT JUMPDEST POP PUSH1 0x1 PUSH1 0xA0 PUSH1 0x2 EXP SUB DUP2 CALLDATALOAD AND SWAP1 PUSH1 0x20 ADD CALLDATALOAD PUSH2 0x662 JUMP JUMPDEST PUSH1 0x40 MLOAD DUP1 DUP5 ISZERO ISZERO DUP2 MSTORE PUSH1 0x20 ADD DUP4 PUSH1 0x3 DUP2 GT ISZERO PUSH2 0x2BA JUMPI INVALID JUMPDEST DUP2 MSTORE PUSH1 0x20 ADD DUP1 PUSH1 0x20 ADD DUP3 DUP2 SUB DUP3 MSTORE DUP4 DUP2 DUP2 MLOAD DUP2 MSTORE PUSH1 0x20 ADD SWAP2 POP DUP1 MLOAD SWAP1 PUSH1 0x20 ADD SWAP1 DUP1 DUP4 DUP4 PUSH1 0x0 JUMPDEST DUP4 DUP2 LT ISZERO PUSH2 0x2F8 JUMPI DUP2 DUP2 ADD MLOAD DUP4 DUP3 ADD MSTORE PUSH1 0x20 ADD PUSH2 0x2E0 JUMP JUMPDEST POP POP POP POP SWAP1 POP SWAP1 DUP2 ADD SWAP1 PUSH1 0x1F AND DUP1 ISZERO PUSH2 0x325 JUMPI DUP1 DUP3 SUB DUP1 MLOAD PUSH1 0x1 DUP4 PUSH1 0x20 SUB PUSH2 0x100 EXP SUB NOT AND DUP2 MSTORE PUSH1 0x20 ADD SWAP2 POP JUMPDEST POP SWAP5 POP POP POP POP POP PUSH1 0x40 MLOAD DUP1 SWAP2 SUB SWAP1 RETURN JUMPDEST PUSH2 0x1DF PUSH1 0x4 DUP1 CALLDATASIZE SUB PUSH1 0x40 DUP2 LT ISZERO PUSH2 0x34B JUMPI PUSH1 0x0 DUP1 REVERT JUMPDEST POP PUSH1 0x1 PUSH1 0xA0 PUSH1 0x2 EXP SUB DUP2 CALLDATALOAD AND SWAP1 PUSH1 0x20 ADD CALLDATALOAD PUSH2 0x71B JUMP JUMPDEST PUSH2 0x118 PUSH1 0x4 DUP1 CALLDATASIZE SUB PUSH1 0x40 DUP2 LT ISZERO PUSH2 0x377 JUMPI PUSH1 0x0 DUP1 REVERT JUMPDEST POP PUSH1 0x1 PUSH1 0xA0 PUSH1 0x2 EXP SUB DUP2 CALLDATALOAD AND SWAP1 PUSH1 0x20 ADD CALLDATALOAD PUSH2 0x76A JUMP JUMPDEST PUSH2 0x3B3 PUSH1 0x4 DUP1 CALLDATASIZE SUB PUSH1 0x20 DUP2 LT ISZERO PUSH2 0x3A3 JUMPI PUSH1 0x0 DUP1 REVERT JUMPDEST POP CALLDATALOAD PUSH1 0x1 PUSH1 0xA0 PUSH1 0x2 EXP SUB AND PUSH2 0x786 JUMP JUMPDEST STOP JUMPDEST PUSH2 0x3B3 PUSH1 0x4 DUP1 CALLDATASIZE SUB PUSH1 0x20 DUP2 LT ISZERO PUSH2 0x3CB JUMPI PUSH1 0x0 DUP1 REVERT JUMPDEST POP CALLDATALOAD PUSH2 0x870 JUMP JUMPDEST PUSH2 0x3B3 PUSH1 0x4 DUP1 CALLDATASIZE SUB PUSH1 0x40 DUP2 LT ISZERO PUSH2 0x3E8 JUMPI PUSH1 0x0 DUP1 REVERT JUMPDEST POP DUP1 CALLDATALOAD SWAP1 PUSH1 0x20 ADD CALLDATALOAD PUSH1 0xFF AND PUSH2 0x91F JUMP JUMPDEST PUSH2 0x3B3 PUSH1 0x4 DUP1 CALLDATASIZE SUB PUSH1 0x20 DUP2 LT ISZERO PUSH2 0x40E JUMPI PUSH1 0x0 DUP1 REVERT JUMPDEST POP CALLDATALOAD PUSH2 0xA36 JUMP JUMPDEST PUSH2 0x3B3 PUSH1 0x4 DUP1 CALLDATASIZE SUB PUSH1 0x40 DUP2 LT ISZERO PUSH2 0x42B JUMPI PUSH1 0x0 DUP1 REVERT JUMPDEST DUP2 CALLDATALOAD SWAP2 SWAP1 DUP2 ADD SWAP1 PUSH1 0x40 DUP2 ADD PUSH1 0x20 DUP3 ADD CALLDATALOAD PUSH5 0x100000000 DUP2 GT ISZERO PUSH2 0x44D JUMPI PUSH1 0x0 DUP1 REVERT JUMPDEST DUP3 ADD DUP4 PUSH1 0x20 DUP3 ADD GT ISZERO PUSH2 0x45F JUMPI PUSH1 0x0 DUP1 REVERT JUMPDEST DUP1 CALLDATALOAD SWAP1 PUSH1 0x20 ADD SWAP2 DUP5 PUSH1 0x1 DUP4 MUL DUP5 ADD GT PUSH5 0x100000000 DUP4 GT OR ISZERO PUSH2 0x481 JUMPI PUSH1 0x0 DUP1 REVERT JUMPDEST SWAP2 SWAP1 DUP1 DUP1 PUSH1 0x1F ADD PUSH1 0x20 DUP1 SWAP2 DIV MUL PUSH1 0x20 ADD PUSH1 0x40 MLOAD SWAP1 DUP2 ADD PUSH1 0x40 MSTORE DUP1 SWAP4 SWAP3 SWAP2 SWAP1 DUP2 DUP2 MSTORE PUSH1 0x20 ADD DUP4 DUP4 DUP1 DUP3 DUP5 CALLDATACOPY PUSH1 0x0 SWAP3 ADD SWAP2 SWAP1 SWAP2 MSTORE POP SWAP3 SWAP6 POP PUSH2 0xABF SWAP5 POP POP POP POP POP JUMP JUMPDEST PUSH1 0x6 PUSH1 0x20 MSTORE DUP2 PUSH1 0x0 MSTORE PUSH1 0x40 PUSH1 0x0 KECCAK256 DUP2 DUP2 SLOAD DUP2 LT PUSH2 0x4DE JUMPI PUSH1 0x0 DUP1 REVERT JUMPDEST SWAP1 PUSH1 0x0 MSTORE PUSH1 0x20 PUSH1 0x0 KECCAK256 ADD PUSH1 0x0 SWAP2 POP SWAP2 POP POP SLOAD DUP2 JUMP JUMPDEST PUSH1 0x1 PUSH1 0xA0 PUSH1 0x2 EXP SUB DUP2 AND PUSH1 0x0 SWAP1 DUP2 MSTORE PUSH1 0x4 PUSH1 0x20 SWAP1 DUP2 MSTORE PUSH1 0x40 DUP1 DUP4 KECCAK256 DUP1 SLOAD DUP3 MLOAD DUP2 DUP6 MUL DUP2 ADD DUP6 ADD SWAP1 SWAP4 MSTORE DUP1 DUP4 MSTORE PUSH1 0x60 SWAP4 SWAP1 SWAP3 SWAP1 DUP3 SWAP1 DUP5 SWAP1 DUP4 ADD DUP3 DUP3 DUP1 ISZERO PUSH2 0x558 JUMPI PUSH1 0x20 MUL DUP3 ADD SWAP2 SWAP1 PUSH1 0x0 MSTORE PUSH1 0x20 PUSH1 0x0 KECCAK256 SWAP1 JUMPDEST DUP2 SLOAD DUP2 MSTORE PUSH1 0x20 ADD SWAP1 PUSH1 0x1 ADD SWAP1 DUP1 DUP4 GT PUSH2 0x544 JUMPI JUMPDEST POP POP POP POP POP SWAP1 POP SWAP2 POP SWAP2 POP SWAP2 POP SWAP2 JUMP JUMPDEST PUSH1 0x1 SLOAD DUP2 JUMP JUMPDEST PUSH1 0x0 DUP1 DUP4 PUSH1 0x1 PUSH1 0xA0 PUSH1 0x2 EXP SUB DUP2 AND PUSH2 0x585 JUMPI PUSH1 0x0 DUP1 REVERT JUMPDEST POP POP POP PUSH1 0x1 PUSH1 0xA0 PUSH1 0x2 EXP SUB SWAP2 SWAP1 SWAP2 AND PUSH1 0x0 SWAP1 DUP2 MSTORE PUSH1 0x3 PUSH1 0x20 SWAP1 DUP2 MSTORE PUSH1 0x40 DUP1 DUP4 KECCAK256 SWAP4 DUP4 MSTORE SWAP3 SWAP1 MSTORE KECCAK256 SLOAD PUSH1 0xFF DUP1 DUP3 AND SWAP3 PUSH2 0x100 SWAP1 SWAP3 DIV AND SWAP1 JUMP JUMPDEST PUSH1 0x0 DUP3 DUP2 DUP2 PUSH1 0x3 DUP2 GT ISZERO PUSH2 0x5CD JUMPI INVALID JUMPDEST LT ISZERO DUP1 ISZERO PUSH2 0x5E7 JUMPI POP PUSH1 0x3 DUP2 PUSH1 0x3 DUP2 GT ISZERO PUSH2 0x5E4 JUMPI INVALID JUMPDEST GT ISZERO JUMPDEST PUSH2 0x5F0 JUMPI PUSH1 0x0 DUP1 REVERT JUMPDEST DUP3 PUSH1 0x0 DUP2 PUSH1 0x3 DUP2 GT ISZERO PUSH2 0x5FF JUMPI INVALID JUMPDEST LT ISZERO DUP1 ISZERO PUSH2 0x619 JUMPI POP PUSH1 0x3 DUP2 PUSH1 0x3 DUP2 GT ISZERO PUSH2 0x616 JUMPI INVALID JUMPDEST GT ISZERO JUMPDEST PUSH2 0x622 JUMPI PUSH1 0x0 DUP1 REVERT JUMPDEST DUP4 PUSH1 0x3 DUP2 GT ISZERO PUSH2 0x62E JUMPI INVALID JUMPDEST DUP6 PUSH1 0x3 DUP2 GT ISZERO PUSH2 0x63A JUMPI INVALID JUMPDEST LT PUSH2 0x647 JUMPI DUP5 SWAP3 POP PUSH2 0x64B JUMP JUMPDEST DUP4 SWAP3 POP JUMPDEST POP POP SWAP3 SWAP2 POP POP JUMP JUMPDEST PUSH1 0x2 SLOAD PUSH1 0x1 PUSH1 0xA0 PUSH1 0x2 EXP SUB AND DUP2 JUMP JUMPDEST PUSH1 0x3 PUSH1 0x20 SWAP1 DUP2 MSTORE PUSH1 0x0 SWAP3 DUP4 MSTORE PUSH1 0x40 DUP1 DUP5 KECCAK256 DUP3 MSTORE SWAP2 DUP4 MSTORE SWAP2 DUP2 SWAP1 KECCAK256 DUP1 SLOAD PUSH1 0x1 DUP1 DUP4 ADD DUP1 SLOAD DUP6 MLOAD PUSH1 0x2 PUSH2 0x100 SWAP5 DUP4 AND ISZERO DUP6 MUL PUSH1 0x0 NOT ADD SWAP1 SWAP3 AND SWAP2 SWAP1 SWAP2 DIV PUSH1 0x1F DUP2 ADD DUP9 SWAP1 DIV DUP9 MUL DUP3 ADD DUP9 ADD SWAP1 SWAP7 MSTORE DUP6 DUP2 MSTORE PUSH1 0xFF DUP1 DUP6 AND SWAP8 SWAP4 SWAP1 SWAP5 DIV SWAP1 SWAP4 AND SWAP5 SWAP1 SWAP2 DUP4 ADD DUP3 DUP3 DUP1 ISZERO PUSH2 0x711 JUMPI DUP1 PUSH1 0x1F LT PUSH2 0x6E6 JUMPI PUSH2 0x100 DUP1 DUP4 SLOAD DIV MUL DUP4 MSTORE SWAP2 PUSH1 0x20 ADD SWAP2 PUSH2 0x711 JUMP JUMPDEST DUP3 ADD SWAP2 SWAP1 PUSH1 0x0 MSTORE PUSH1 0x20 PUSH1 0x0 KECCAK256 SWAP1 JUMPDEST DUP2 SLOAD DUP2 MSTORE SWAP1 PUSH1 0x1 ADD SWAP1 PUSH1 0x20 ADD DUP1 DUP4 GT PUSH2 0x6F4 JUMPI DUP3 SWAP1 SUB PUSH1 0x1F AND DUP3 ADD SWAP2 JUMPDEST POP POP POP POP POP SWAP1 POP DUP4 JUMP JUMPDEST PUSH1 0x0 DUP1 DUP4 PUSH1 0x1 PUSH1 0xA0 PUSH1 0x2 EXP SUB DUP2 AND PUSH2 0x732 JUMPI PUSH1 0x0 DUP1 REVERT JUMPDEST POP POP POP PUSH1 0x1 PUSH1 0xA0 PUSH1 0x2 EXP SUB SWAP2 SWAP1 SWAP2 AND PUSH1 0x0 SWAP1 DUP2 MSTORE PUSH1 0x5 PUSH1 0x20 SWAP1 DUP2 MSTORE PUSH1 0x40 DUP1 DUP4 KECCAK256 SWAP4 DUP4 MSTORE SWAP3 SWAP1 MSTORE KECCAK256 SLOAD PUSH1 0xFF DUP1 DUP3 AND SWAP3 PUSH2 0x100 SWAP1 SWAP3 DIV AND SWAP1 JUMP JUMPDEST PUSH1 0x4 PUSH1 0x20 MSTORE DUP2 PUSH1 0x0 MSTORE PUSH1 0x40 PUSH1 0x0 KECCAK256 DUP2 DUP2 SLOAD DUP2 LT PUSH2 0x4DE JUMPI PUSH1 0x0 DUP1 REVERT JUMPDEST PUSH1 0x0 SLOAD PUSH2 0x100 SWAP1 DIV PUSH1 0xFF AND DUP1 PUSH2 0x79F JUMPI POP PUSH2 0x79F PUSH2 0xB95 JUMP JUMPDEST DUP1 PUSH2 0x7AD JUMPI POP PUSH1 0x0 SLOAD PUSH1 0xFF AND ISZERO JUMPDEST PUSH2 0x802 JUMPI PUSH1 0x40 MLOAD PUSH32 0x8C379A000000000000000000000000000000000000000000000000000000000 DUP2 MSTORE PUSH1 0x4 ADD DUP1 DUP1 PUSH1 0x20 ADD DUP3 DUP2 SUB DUP3 MSTORE PUSH1 0x2E DUP2 MSTORE PUSH1 0x20 ADD DUP1 PUSH2 0xC3D PUSH1 0x2E SWAP2 CODECOPY PUSH1 0x40 ADD SWAP2 POP POP PUSH1 0x40 MLOAD DUP1 SWAP2 SUB SWAP1 REVERT JUMPDEST PUSH1 0x0 SLOAD PUSH2 0x100 SWAP1 DIV PUSH1 0xFF AND ISZERO DUP1 ISZERO PUSH2 0x82D JUMPI PUSH1 0x0 DUP1 SLOAD PUSH1 0xFF NOT PUSH2 0xFF00 NOT SWAP1 SWAP2 AND PUSH2 0x100 OR AND PUSH1 0x1 OR SWAP1 SSTORE JUMPDEST PUSH1 0x3 PUSH1 0x1 SSTORE PUSH1 0x2 DUP1 SLOAD PUSH20 0xFFFFFFFFFFFFFFFFFFFFFFFFFFFFFFFFFFFFFFFF NOT AND PUSH1 0x1 PUSH1 0xA0 PUSH1 0x2 EXP SUB DUP5 AND OR SWAP1 SSTORE DUP1 ISZERO PUSH2 0x86C JUMPI PUSH1 0x0 DUP1 SLOAD PUSH2 0xFF00 NOT AND SWAP1 SSTORE JUMPDEST POP POP JUMP JUMPDEST CALLER PUSH1 0x0 SWAP1 DUP2 MSTORE PUSH1 0x5 PUSH1 0x20 SWAP1 DUP2 MSTORE PUSH1 0x40 DUP1 DUP4 KECCAK256 DUP5 DUP5 MSTORE SWAP1 SWAP2 MSTORE SWAP1 KECCAK256 SLOAD PUSH1 0xFF AND ISZERO PUSH2 0x898 JUMPI PUSH1 0x0 DUP1 REVERT JUMPDEST PUSH1 0x40 DUP1 MLOAD DUP1 DUP3 ADD SWAP1 SWAP2 MSTORE PUSH1 0x1 DUP2 MSTORE PUSH1 0x20 DUP2 ADD PUSH1 0x0 SWAP1 MSTORE CALLER PUSH1 0x0 SWAP1 DUP2 MSTORE PUSH1 0x5 PUSH1 0x20 SWAP1 DUP2 MSTORE PUSH1 0x40 DUP1 DUP4 KECCAK256 DUP6 DUP5 MSTORE DUP3 MSTORE SWAP1 SWAP2 KECCAK256 DUP3 MLOAD DUP2 SLOAD PUSH1 0xFF NOT AND SWAP1 ISZERO ISZERO OR DUP1 DUP3 SSTORE SWAP2 DUP4 ADD MLOAD SWAP1 SWAP2 DUP3 SWAP1 PUSH2 0xFF00 NOT AND PUSH2 0x100 DUP4 PUSH1 0x3 DUP2 GT ISZERO PUSH2 0x8F3 JUMPI INVALID JUMPDEST MUL OR SWAP1 SSTORE POP POP CALLER PUSH1 0x0 SWAP1 DUP2 MSTORE PUSH1 0x6 PUSH1 0x20 SWAP1 DUP2 MSTORE PUSH1 0x40 DUP3 KECCAK256 DUP1 SLOAD PUSH1 0x1 DUP2 ADD DUP3 SSTORE SWAP1 DUP4 MSTORE SWAP2 KECCAK256 ADD SWAP2 SWAP1 SWAP2 SSTORE POP JUMP JUMPDEST DUP1 PUSH1 0x0 DUP2 PUSH1 0x3 DUP2 GT ISZERO PUSH2 0x92E JUMPI INVALID JUMPDEST LT ISZERO DUP1 ISZERO PUSH2 0x948 JUMPI POP PUSH1 0x3 DUP2 PUSH1 0x3 DUP2 GT ISZERO PUSH2 0x945 JUMPI INVALID JUMPDEST GT ISZERO JUMPDEST PUSH2 0x951 JUMPI PUSH1 0x0 DUP1 REVERT JUMPDEST CALLER PUSH1 0x0 SWAP1 DUP2 MSTORE PUSH1 0x5 PUSH1 0x20 SWAP1 DUP2 MSTORE PUSH1 0x40 DUP1 DUP4 KECCAK256 DUP7 DUP5 MSTORE SWAP1 SWAP2 MSTORE SWAP1 KECCAK256 DUP1 SLOAD PUSH2 0x100 SWAP1 DIV PUSH1 0xFF AND PUSH1 0x3 DUP2 GT ISZERO PUSH2 0x980 JUMPI INVALID JUMPDEST DUP4 PUSH1 0x3 DUP2 GT ISZERO PUSH2 0x98C JUMPI INVALID JUMPDEST GT ISZERO PUSH2 0xA30 JUMPI PUSH1 0x1 DUP4 PUSH1 0x3 DUP2 GT ISZERO PUSH2 0x9A0 JUMPI INVALID JUMPDEST EQ DUP1 PUSH2 0x9B7 JUMPI POP PUSH1 0x2 DUP4 PUSH1 0x3 DUP2 GT ISZERO PUSH2 0x9B5 JUMPI INVALID JUMPDEST EQ JUMPDEST ISZERO PUSH2 0xA30 JUMPI DUP1 SLOAD PUSH1 0xFF NOT AND PUSH1 0x1 OR DUP1 DUP3 SSTORE DUP4 SWAP1 DUP3 SWAP1 PUSH2 0xFF00 NOT AND PUSH2 0x100 DUP4 PUSH1 0x3 DUP2 GT ISZERO PUSH2 0x9E0 JUMPI INVALID JUMPDEST MUL OR SWAP1 SSTORE POP PUSH32 0xBC6EED115CB12CED57D22CE88A4BE72A3B052CF01E5A1947A1F901F8FF26B1A DUP5 DUP5 PUSH1 0x40 MLOAD DUP1 DUP4 DUP2 MSTORE PUSH1 0x20 ADD DUP3 PUSH1 0x3 DUP2 GT ISZERO PUSH2 0xA1E JUMPI INVALID JUMPDEST DUP2 MSTORE PUSH1 0x20 ADD SWAP3 POP POP POP PUSH1 0x40 MLOAD DUP1 SWAP2 SUB SWAP1 LOG1 JUMPDEST POP POP POP POP JUMP JUMPDEST CALLER PUSH1 0x0 SWAP1 DUP2 MSTORE PUSH1 0x3 PUSH1 0x20 SWAP1 DUP2 MSTORE PUSH1 0x40 DUP1 DUP4 KECCAK256 DUP5 DUP5 MSTORE SWAP1 SWAP2 MSTORE SWAP1 KECCAK256 DUP1 SLOAD PUSH1 0xFF AND DUP1 ISZERO PUSH2 0xA76 JUMPI POP PUSH1 0x3 DUP2 SLOAD PUSH2 0x100 SWAP1 DIV PUSH1 0xFF AND PUSH1 0x3 DUP2 GT ISZERO PUSH2 0xA73 JUMPI INVALID JUMPDEST EQ ISZERO JUMPDEST ISZERO PUSH2 0x86C JUMPI DUP1 SLOAD PUSH2 0xFF00 NOT AND PUSH2 0x300 OR DUP2 SSTORE PUSH1 0x40 DUP1 MLOAD DUP4 DUP2 MSTORE SWAP1 MLOAD PUSH32 0xC83F14FB22D6787113E4B492B1B27DAAC6284E516A3C61D454359FD426D04C29 SWAP2 DUP2 SWAP1 SUB PUSH1 0x20 ADD SWAP1 LOG1 POP POP JUMP JUMPDEST CALLER PUSH1 0x0 SWAP1 DUP2 MSTORE PUSH1 0x3 PUSH1 0x20 SWAP1 DUP2 MSTORE PUSH1 0x40 DUP1 DUP4 KECCAK256 DUP6 DUP5 MSTORE SWAP1 SWAP2 MSTORE SWAP1 KECCAK256 SLOAD PUSH1 0xFF AND ISZERO PUSH2 0xAE7 JUMPI PUSH1 0x0 DUP1 REVERT JUMPDEST PUSH1 0x40 DUP1 MLOAD PUSH1 0x60 DUP2 ADD SWAP1 SWAP2 MSTORE PUSH1 0x1 DUP2 MSTORE PUSH1 0x20 DUP2 ADD PUSH1 0x0 DUP2 MSTORE PUSH1 0x20 SWAP1 DUP2 ADD DUP4 SWAP1 MSTORE CALLER PUSH1 0x0 SWAP1 DUP2 MSTORE PUSH1 0x3 DUP1 DUP4 MSTORE PUSH1 0x40 DUP1 DUP4 KECCAK256 DUP8 DUP5 MSTORE DUP5 MSTORE SWAP1 SWAP2 KECCAK256 DUP4 MLOAD DUP2 SLOAD PUSH1 0xFF NOT AND SWAP1 ISZERO ISZERO OR DUP1 DUP3 SSTORE SWAP3 DUP5 ADD MLOAD SWAP1 SWAP3 SWAP1 SWAP2 DUP4 SWAP2 PUSH2 0xFF00 NOT AND SWAP1 PUSH2 0x100 SWAP1 DUP5 SWAP1 DUP2 GT ISZERO PUSH2 0xB4C JUMPI INVALID JUMPDEST MUL OR SWAP1 SSTORE POP PUSH1 0x40 DUP3 ADD MLOAD DUP1 MLOAD PUSH2 0xB6C SWAP2 PUSH1 0x1 DUP5 ADD SWAP2 PUSH1 0x20 SWAP1 SWAP2 ADD SWAP1 PUSH2 0xB9B JUMP JUMPDEST POP POP CALLER PUSH1 0x0 SWAP1 DUP2 MSTORE PUSH1 0x4 PUSH1 0x20 SWAP1 DUP2 MSTORE PUSH1 0x40 DUP3 KECCAK256 DUP1 SLOAD PUSH1 0x1 DUP2 ADD DUP3 SSTORE SWAP1 DUP4 MSTORE SWAP2 KECCAK256 ADD SWAP3 SWAP1 SWAP3 SSTORE POP POP JUMP JUMPDEST ADDRESS EXTCODESIZE ISZERO SWAP1 JUMP JUMPDEST DUP3 DUP1 SLOAD PUSH1 0x1 DUP2 PUSH1 0x1 AND ISZERO PUSH2 0x100 MUL SUB AND PUSH1 0x2 SWAP1 DIV SWAP1 PUSH1 0x0 MSTORE PUSH1 0x20 PUSH1 0x0 KECCAK256 SWAP1 PUSH1 0x1F ADD PUSH1 0x20 SWAP1 DIV DUP2 ADD SWAP3 DUP3 PUSH2 0xBD1 JUMPI PUSH1 0x0 DUP6 SSTORE PUSH2 0xC17 JUMP JUMPDEST DUP3 PUSH1 0x1F LT PUSH2 0xBEA JUMPI DUP1 MLOAD PUSH1 0xFF NOT AND DUP4 DUP1 ADD OR DUP6 SSTORE PUSH2 0xC17 JUMP JUMPDEST DUP3 DUP1 ADD PUSH1 0x1 ADD DUP6 SSTORE DUP3 ISZERO PUSH2 0xC17 JUMPI SWAP2 DUP3 ADD JUMPDEST DUP3 DUP2 GT ISZERO PUSH2 0xC17 JUMPI DUP3 MLOAD DUP3 SSTORE SWAP2 PUSH1 0x20 ADD SWAP2 SWAP1 PUSH1 0x1 ADD SWAP1 PUSH2 0xBFC JUMP JUMPDEST POP PUSH2 0xC23 SWAP3 SWAP2 POP PUSH2 0xC27 JUMP JUMPDEST POP SWAP1 JUMP JUMPDEST JUMPDEST DUP1 DUP3 GT ISZERO PUSH2 0xC23 JUMPI PUSH1 0x0 DUP2 SSTORE PUSH1 0x1 ADD PUSH2 0xC28 JUMP INVALID 0x49 PUSH15 0x697469616C697A61626C653A20636F PUSH15 0x747261637420697320616C72656164 PUSH26 0x20696E697469616C697A6564A264697066735822122012C31B9A CALLDATASIZE DUP14 0xEA 0x1E 0x49 0xC3 0xD2 0xF 0xDC 0xCB PUSH30 0x3E2206B097DDB05172694DC291D05AAC5F64736F6C634300070600330000 "
        },
        "methodIdentifiers": {
          "addIssuerCredential(bytes32)": "dc11e39b",
          "addSubjectCredential(bytes32,string)": "e04ce02c",
          "deleteSubjectCredential(bytes32)": "dff9a1a9",
          "getCredentialStatus(uint8,uint8)": "5faf7d94",
          "getIssuerCredentialStatus(address,bytes32)": "aeda232a",
          "getSubjectCredentialList(address)": "4510b1cb",
          "getSubjectCredentialStatus(address,bytes32)": "55d64732",
          "initialize(address)": "c4d66de8",
          "issuerCredentialList(address,uint256)": "41e61ff8",
          "previousPublishedVersion()": "6104464f",
          "subjectCredentialList(address,uint256)": "c43f6b36",
          "subjectCredentialRegistry(address,bytes32)": "6792223d",
          "updateCredentialStatus(bytes32,uint8)": "dd517e10",
          "version()": "54fd4d50"
        }
      }
    }
  }
}