{
  "_format": "hh-sol-artifact-1",
  "contractName": "AlastriaCredentialRegistry",
  "sourceName": "contracts/registry/AlastriaCredentialRegistry.sol",
  "abi": [
    {
      "anonymous": false,
      "inputs": [
        {
          "indexed": false,
          "internalType": "bytes32",
          "name": "issuerCredentialHash",
          "type": "bytes32"
        },
        {
          "indexed": false,
          "internalType": "enum AlastriaCredentialRegistry.Status",
          "name": "status",
          "type": "uint8"
        }
      ],
      "name": "IssuerCredentialRevoked",
      "type": "event"
    },
    {
      "anonymous": false,
      "inputs": [
        {
          "indexed": false,
          "internalType": "bytes32",
          "name": "subjectCredentialHash",
          "type": "bytes32"
        }
      ],
      "name": "SubjectCredentialDeleted",
      "type": "event"
    },
    {
      "inputs": [
        {
          "internalType": "bytes32",
          "name": "issuerCredentialHash",
          "type": "bytes32"
        }
      ],
      "name": "addIssuerCredential",
      "outputs": [],
      "stateMutability": "nonpayable",
      "type": "function"
    },
    {
      "inputs": [
        {
          "internalType": "bytes32",
          "name": "subjectCredentialHash",
          "type": "bytes32"
        },
        {
          "internalType": "string",
          "name": "URI",
          "type": "string"
        }
      ],
      "name": "addSubjectCredential",
      "outputs": [],
      "stateMutability": "nonpayable",
      "type": "function"
    },
    {
      "inputs": [
        {
          "internalType": "bytes32",
          "name": "subjectCredentialHash",
          "type": "bytes32"
        }
      ],
      "name": "deleteSubjectCredential",
      "outputs": [],
      "stateMutability": "nonpayable",
      "type": "function"
    },
    {
      "inputs": [
        {
          "internalType": "enum AlastriaCredentialRegistry.Status",
          "name": "subjectStatus",
          "type": "uint8"
        },
        {
          "internalType": "enum AlastriaCredentialRegistry.Status",
          "name": "issuerStatus",
          "type": "uint8"
        }
      ],
      "name": "getCredentialStatus",
      "outputs": [
        {
          "internalType": "enum AlastriaCredentialRegistry.Status",
          "name": "",
          "type": "uint8"
        }
      ],
      "stateMutability": "pure",
      "type": "function"
    },
    {
      "inputs": [
        {
          "internalType": "address",
          "name": "issuer",
          "type": "address"
        },
        {
          "internalType": "bytes32",
          "name": "issuerCredentialHash",
          "type": "bytes32"
        }
      ],
      "name": "getIssuerCredentialStatus",
      "outputs": [
        {
          "internalType": "bool",
          "name": "exists",
          "type": "bool"
        },
        {
          "internalType": "enum AlastriaCredentialRegistry.Status",
          "name": "status",
          "type": "uint8"
        }
      ],
      "stateMutability": "view",
      "type": "function"
    },
    {
      "inputs": [
        {
          "internalType": "address",
          "name": "subject",
          "type": "address"
        }
      ],
      "name": "getSubjectCredentialList",
      "outputs": [
        {
          "internalType": "uint256",
          "name": "",
          "type": "uint256"
        },
        {
          "internalType": "bytes32[]",
          "name": "",
          "type": "bytes32[]"
        }
      ],
      "stateMutability": "view",
      "type": "function"
    },
    {
      "inputs": [
        {
          "internalType": "address",
          "name": "subject",
          "type": "address"
        },
        {
          "internalType": "bytes32",
          "name": "subjectCredentialHash",
          "type": "bytes32"
        }
      ],
      "name": "getSubjectCredentialStatus",
      "outputs": [
        {
          "internalType": "bool",
          "name": "exists",
          "type": "bool"
        },
        {
          "internalType": "enum AlastriaCredentialRegistry.Status",
          "name": "status",
          "type": "uint8"
        }
      ],
      "stateMutability": "view",
      "type": "function"
    },
    {
      "inputs": [
        {
          "internalType": "address",
          "name": "_previousPublishedVersion",
          "type": "address"
        }
      ],
      "name": "initialize",
      "outputs": [],
      "stateMutability": "nonpayable",
      "type": "function"
    },
    {
      "inputs": [
        {
          "internalType": "address",
          "name": "",
          "type": "address"
        },
        {
          "internalType": "uint256",
          "name": "",
          "type": "uint256"
        }
      ],
      "name": "issuerCredentialList",
      "outputs": [
        {
          "internalType": "bytes32",
          "name": "",
          "type": "bytes32"
        }
      ],
      "stateMutability": "view",
      "type": "function"
    },
    {
      "inputs": [],
      "name": "previousPublishedVersion",
      "outputs": [
        {
          "internalType": "address",
          "name": "",
          "type": "address"
        }
      ],
      "stateMutability": "view",
      "type": "function"
    },
    {
      "inputs": [
        {
          "internalType": "address",
          "name": "",
          "type": "address"
        },
        {
          "internalType": "uint256",
          "name": "",
          "type": "uint256"
        }
      ],
      "name": "subjectCredentialList",
      "outputs": [
        {
          "internalType": "bytes32",
          "name": "",
          "type": "bytes32"
        }
      ],
      "stateMutability": "view",
      "type": "function"
    },
    {
      "inputs": [
        {
          "internalType": "address",
          "name": "",
          "type": "address"
        },
        {
          "internalType": "bytes32",
          "name": "",
          "type": "bytes32"
        }
      ],
      "name": "subjectCredentialRegistry",
      "outputs": [
        {
          "internalType": "bool",
          "name": "exists",
          "type": "bool"
        },
        {
          "internalType": "enum AlastriaCredentialRegistry.Status",
          "name": "status",
          "type": "uint8"
        },
        {
          "internalType": "string",
          "name": "URI",
          "type": "string"
        }
      ],
      "stateMutability": "view",
      "type": "function"
    },
    {
      "inputs": [
        {
          "internalType": "bytes32",
          "name": "issuerCredentialHash",
          "type": "bytes32"
        },
        {
          "internalType": "enum AlastriaCredentialRegistry.Status",
          "name": "status",
          "type": "uint8"
        }
      ],
      "name": "updateCredentialStatus",
      "outputs": [],
      "stateMutability": "nonpayable",
      "type": "function"
    },
    {
      "inputs": [],
      "name": "version",
      "outputs": [
        {
          "internalType": "int256",
          "name": "",
          "type": "int256"
        }
      ],
      "stateMutability": "view",
      "type": "function"
    }
  ],
  "bytecode": "0x608060405234801561001057600080fd5b50610ca0806100206000396000f3fe608060405234801561001057600080fd5b50600436106100e7576000357c010000000000000000000000000000000000000000000000000000000090048063aeda232a11610099578063aeda232a14610335578063c43f6b3614610361578063c4d66de81461038d578063dc11e39b146103b5578063dd517e10146103d2578063dff9a1a9146103f8578063e04ce02c14610415576100e7565b806341e61ff8146100ec5780634510b1cb1461012a57806354fd4d50146101ab57806355d64732146101b35780635faf7d94146102095780636104464f146102525780636792223d14610276575b600080fd5b6101186004803603604081101561010257600080fd5b50600160a060020a0381351690602001356104c2565b60408051918252519081900360200190f35b6101506004803603602081101561014057600080fd5b5035600160a060020a03166104f3565b6040518083815260200180602001828103825283818151815260200191508051906020019060200280838360005b8381101561019657818101518382015260200161017e565b50505050905001935050505060405180910390f35b610118610568565b6101df600480360360408110156101c957600080fd5b50600160a060020a03813516906020013561056e565b6040518083151581526020018260038111156101f757fe5b81526020019250505060405180910390f35b6102316004803603604081101561021f57600080fd5b5060ff813581169160200135166105bd565b6040518082600381111561024157fe5b815260200191505060405180910390f35b61025a610653565b60408051600160a060020a039092168252519081900360200190f35b6102a26004803603604081101561028c57600080fd5b50600160a060020a038135169060200135610662565b6040518084151581526020018360038111156102ba57fe5b815260200180602001828103825283818151815260200191508051906020019080838360005b838110156102f85781810151838201526020016102e0565b50505050905090810190601f1680156103255780820380516001836020036101000a031916815260200191505b5094505050505060405180910390f35b6101df6004803603604081101561034b57600080fd5b50600160a060020a03813516906020013561071b565b6101186004803603604081101561037757600080fd5b50600160a060020a03813516906020013561076a565b6103b3600480360360208110156103a357600080fd5b5035600160a060020a0316610786565b005b6103b3600480360360208110156103cb57600080fd5b5035610870565b6103b3600480360360408110156103e857600080fd5b508035906020013560ff1661091f565b6103b36004803603602081101561040e57600080fd5b5035610a36565b6103b36004803603604081101561042b57600080fd5b8135919081019060408101602082013564010000000081111561044d57600080fd5b82018360208201111561045f57600080fd5b8035906020019184600183028401116401000000008311171561048157600080fd5b91908080601f016020809104026020016040519081016040528093929190818152602001838380828437600092019190915250929550610abf945050505050565b600660205281600052604060002081815481106104de57600080fd5b90600052602060002001600091509150505481565b600160a060020a038116600090815260046020908152604080832080548251818502810185019093528083526060939092908290849083018282801561055857602002820191906000526020600020905b815481526020019060010190808311610544575b5050505050905091509150915091565b60015481565b60008083600160a060020a03811661058557600080fd5b505050600160a060020a03919091166000908152600360209081526040808320938352929052205460ff808216926101009092041690565b600082818160038111156105cd57fe5b101580156105e7575060038160038111156105e457fe5b11155b6105f057600080fd5b8260008160038111156105ff57fe5b101580156106195750600381600381111561061657fe5b11155b61062257600080fd5b83600381111561062e57fe5b85600381111561063a57fe5b106106475784925061064b565b8392505b505092915050565b600254600160a060020a031681565b6003602090815260009283526040808420825291835291819020805460018083018054855160026101009483161585026000190190921691909104601f810188900488028201880190965285815260ff80851697939094049093169490918301828280156107115780601f106106e657610100808354040283529160200191610711565b820191906000526020600020905b8154815290600101906020018083116106f457829003601f168201915b5050505050905083565b60008083600160a060020a03811661073257600080fd5b505050600160a060020a03919091166000908152600560209081526040808320938352929052205460ff808216926101009092041690565b600460205281600052604060002081815481106104de57600080fd5b600054610100900460ff168061079f575061079f610b95565b806107ad575060005460ff16155b610802576040517f08c379a000000000000000000000000000000000000000000000000000000000815260040180806020018281038252602e815260200180610c3d602e913960400191505060405180910390fd5b600054610100900460ff1615801561082d576000805460ff1961ff0019909116610100171660011790555b60036001556002805473ffffffffffffffffffffffffffffffffffffffff1916600160a060020a038416179055801561086c576000805461ff00191690555b5050565b33600090815260056020908152604080832084845290915290205460ff161561089857600080fd5b6040805180820190915260018152602081016000905233600090815260056020908152604080832085845282529091208251815460ff191690151517808255918301519091829061ff0019166101008360038111156108f357fe5b021790555050336000908152600660209081526040822080546001810182559083529120019190915550565b80600081600381111561092e57fe5b101580156109485750600381600381111561094557fe5b11155b61095157600080fd5b33600090815260056020908152604080832086845290915290208054610100900460ff16600381111561098057fe5b83600381111561098c57fe5b1115610a305760018360038111156109a057fe5b14806109b7575060028360038111156109b557fe5b145b15610a3057805460ff19166001178082558390829061ff0019166101008360038111156109e057fe5b02179055507f0bc6eed115cb12ced57d22ce88a4be72a3b052cf01e5a1947a1f901f8ff26b1a848460405180838152602001826003811115610a1e57fe5b81526020019250505060405180910390a15b50505050565b3360009081526003602090815260408083208484529091529020805460ff168015610a76575060038154610100900460ff166003811115610a7357fe5b14155b1561086c57805461ff0019166103001781556040805183815290517fc83f14fb22d6787113e4b492b1b27daac6284e516a3c61d454359fd426d04c299181900360200190a15050565b33600090815260036020908152604080832085845290915290205460ff1615610ae757600080fd5b604080516060810190915260018152602081016000815260209081018390523360009081526003808352604080832087845284529091208351815460ff1916901515178082559284015190929091839161ff00191690610100908490811115610b4c57fe5b021790555060408201518051610b6c916001840191602090910190610b9b565b505033600090815260046020908152604082208054600181018255908352912001929092555050565b303b1590565b828054600181600116156101000203166002900490600052602060002090601f016020900481019282610bd15760008555610c17565b82601f10610bea57805160ff1916838001178555610c17565b82800160010185558215610c17579182015b82811115610c17578251825591602001919060010190610bfc565b50610c23929150610c27565b5090565b5b80821115610c235760008155600101610c2856fe496e697469616c697a61626c653a20636f6e747261637420697320616c726561647920696e697469616c697a6564a264697066735822122012c31b9a368dea1e49c3d20fdccb7d3e2206b097ddb05172694dc291d05aac5f64736f6c63430007060033",
  "linkReferences": {},
  "deployedLinkReferences": {}
}