{
  "_format": "hh-sol-artifact-1",
  "contractName": "AlastriaIdentityIssuer",
  "sourceName": "contracts/identityManager/AlastriaIdentityIssuer.sol",
  "abi": [
    {
      "inputs": [
        {
          "internalType": "address",
          "name": "_identityIssuer",
          "type": "address"
        },
        {
          "internalType": "enum Eidas.EidasLevel",
          "name": "_level",
          "type": "uint8"
        }
      ],
      "name": "addIdentityIssuer",
      "outputs": [],
      "stateMutability": "nonpayable",
      "type": "function"
    },
    {
      "inputs": [
        {
          "internalType": "address",
          "name": "_identityIssuer",
          "type": "address"
        }
      ],
      "name": "deleteIdentityIssuer",
      "outputs": [],
      "stateMutability": "nonpayable",
      "type": "function"
    },
    {
      "inputs": [
        {
          "internalType": "address",
          "name": "_identityIssuer",
          "type": "address"
        }
      ],
      "name": "getEidasLevel",
      "outputs": [
        {
          "internalType": "enum Eidas.EidasLevel",
          "name": "",
          "type": "uint8"
        }
      ],
      "stateMutability": "view",
      "type": "function"
    },
    {
      "inputs": [
        {
          "internalType": "address",
          "name": "_firstIdentity",
          "type": "address"
        }
      ],
      "name": "initialize",
      "outputs": [],
      "stateMutability": "nonpayable",
      "type": "function"
    },
    {
      "inputs": [
        {
          "internalType": "address",
          "name": "_identityIssuer",
          "type": "address"
        }
      ],
      "name": "isIdentityIssuer",
      "outputs": [
        {
          "internalType": "bool",
          "name": "",
          "type": "bool"
        }
      ],
      "stateMutability": "view",
      "type": "function"
    },
    {
      "inputs": [
        {
          "internalType": "address",
          "name": "_identityIssuer",
          "type": "address"
        },
        {
          "internalType": "enum Eidas.EidasLevel",
          "name": "_level",
          "type": "uint8"
        }
      ],
      "name": "updateIdentityIssuerEidasLevel",
      "outputs": [],
      "stateMutability": "nonpayable",
      "type": "function"
    }
  ],
  "bytecode": "0x608060405234801561001057600080fd5b506105b1806100206000396000f3fe608060405234801561001057600080fd5b50600436106100655760e060020a60003504630e5a4fbb811461006a57806344963610146100b15780636554adf0146100e2578063889776a81461011c578063c4d66de81461014b578063cb69159914610171575b600080fd5b6100906004803603602081101561008057600080fd5b5035600160a060020a0316610197565b604051808260048111156100a057fe5b815260200191505060405180910390f35b6100e0600480360360408110156100c757600080fd5b508035600160a060020a0316906020013560ff166101b5565b005b610108600480360360208110156100f857600080fd5b5035600160a060020a03166102b8565b604080519115158252519081900360200190f35b6100e06004803603604081101561013257600080fd5b508035600160a060020a0316906020013560ff166102db565b6100e06004803603602081101561016157600080fd5b5035600160a060020a0316610418565b6100e06004803603602081101561018757600080fd5b5035600160a060020a0316610503565b600160a060020a031660009081526001602052604090205460ff1690565b808060048111156101c257fe5b73__$b5d371e22ff22cab27859fc31c8dd39ea9$__630fa78bf790916040518263ffffffff1660e060020a0281526004018082600481111561020057fe5b815260200191505060206040518083038186803b15801561022057600080fd5b505af4158015610234573d6000803e3d6000fd5b505050506040513d602081101561024a57600080fd5b505161025557600080fd5b33600081815260016020526040902054610100900460ff1661027657600080fd5b600160a060020a0384166000908152600160208190526040909120805490918591839160ff19909116908360048111156102ac57fe5b02179055505050505050565b600160a060020a0316600090815260016020526040902054610100900460ff1690565b808060048111156102e857fe5b73__$b5d371e22ff22cab27859fc31c8dd39ea9$__630fa78bf790916040518263ffffffff1660e060020a0281526004018082600481111561032657fe5b815260200191505060206040518083038186803b15801561034657600080fd5b505af415801561035a573d6000803e3d6000fd5b505050506040513d602081101561037057600080fd5b505161037b57600080fd5b600160a060020a0383166000908152600160205260409020548390610100900460ff16156103a857600080fd5b33600081815260016020526040902054610100900460ff166103c957600080fd5b600160a060020a0385166000908152600160208190526040909120805490918691839160ff19909116908360048111156103ff57fe5b0217905550805461ff0019166101001790555050505050565b600054610100900460ff16806104315750610431610547565b8061043f575060005460ff16155b610494576040517f08c379a000000000000000000000000000000000000000000000000000000000815260040180806020018281038252602e81526020018061054e602e913960400191505060405180910390fd5b600054610100900460ff161580156104bf576000805460ff1961ff0019909116610100171660011790555b600160a060020a03821660009081526001602052604090208054600460ff199091161761ff00191661010017905580156104ff576000805461ff00191690555b5050565b33600081815260016020526040902054610100900460ff1661052457600080fd5b50600160a060020a03166000908152600160205260409020805461ffff19169055565b303b159056fe496e697469616c697a61626c653a20636f6e747261637420697320616c726561647920696e697469616c697a6564a2646970667358221220e695e1da8d50c19223e0962954b9af891facea6f6240fe69cd328f049f5060c164736f6c63430007060033",
  "linkReferences": {
    "contracts/libs/Eidas.sol": {
      "Eidas": [
        {
          "length": 20,
          "start": 484
        },
        {
          "length": 20,
          "start": 778
        }
      ]
    }
  },
  "deployedLinkReferences": {
    "contracts/libs/Eidas.sol": {
      "Eidas": [
        {
          "length": 20,
          "start": 452
        },
        {
          "length": 20,
          "start": 746
        }
      ]
    }
  }
}